{
  "contractName": "DreStake",
  "abi": [
    {
      "inputs": [
        {
          "internalType": "address",
          "name": "_stakingToken",
          "type": "address"
        },
        {
          "internalType": "uint48",
          "name": "_startTime",
          "type": "uint48"
        },
        {
          "internalType": "uint48",
          "name": "_endTime",
          "type": "uint48"
        },
        {
          "internalType": "uint48",
          "name": "_lockTime",
          "type": "uint48"
        },
        {
          "internalType": "uint8",
          "name": "_lockPercent",
          "type": "uint8"
        }
      ],
      "stateMutability": "nonpayable",
      "type": "constructor"
    },
    {
      "anonymous": false,
      "inputs": [
        {
          "indexed": true,
          "internalType": "address",
          "name": "tokenAddress",
          "type": "address"
        },
        {
          "indexed": true,
          "internalType": "address",
          "name": "receiver",
          "type": "address"
        },
        {
          "indexed": false,
          "internalType": "uint256",
          "name": "amount",
          "type": "uint256"
        }
      ],
      "name": "ERC20TokensRemoved",
      "type": "event"
    },
    {
      "anonymous": false,
      "inputs": [
        {
          "indexed": false,
          "internalType": "uint48",
          "name": "lockTime",
          "type": "uint48"
        }
      ],
      "name": "LockTimeChanged",
      "type": "event"
    },
    {
      "anonymous": false,
      "inputs": [
        {
          "indexed": true,
          "internalType": "bytes32",
          "name": "role",
          "type": "bytes32"
        },
        {
          "indexed": true,
          "internalType": "bytes32",
          "name": "previousAdminRole",
          "type": "bytes32"
        },
        {
          "indexed": true,
          "internalType": "bytes32",
          "name": "newAdminRole",
          "type": "bytes32"
        }
      ],
      "name": "RoleAdminChanged",
      "type": "event"
    },
    {
      "anonymous": false,
      "inputs": [
        {
          "indexed": true,
          "internalType": "bytes32",
          "name": "role",
          "type": "bytes32"
        },
        {
          "indexed": true,
          "internalType": "address",
          "name": "account",
          "type": "address"
        },
        {
          "indexed": true,
          "internalType": "address",
          "name": "sender",
          "type": "address"
        }
      ],
      "name": "RoleGranted",
      "type": "event"
    },
    {
      "anonymous": false,
      "inputs": [
        {
          "indexed": true,
          "internalType": "bytes32",
          "name": "role",
          "type": "bytes32"
        },
        {
          "indexed": true,
          "internalType": "address",
          "name": "account",
          "type": "address"
        },
        {
          "indexed": true,
          "internalType": "address",
          "name": "sender",
          "type": "address"
        }
      ],
      "name": "RoleRevoked",
      "type": "event"
    },
    {
      "anonymous": false,
      "inputs": [
        {
          "indexed": true,
          "internalType": "address",
          "name": "user",
          "type": "address"
        },
        {
          "indexed": false,
          "internalType": "uint256",
          "name": "amount",
          "type": "uint256"
        },
        {
          "indexed": false,
          "internalType": "uint256",
          "name": "date",
          "type": "uint256"
        }
      ],
      "name": "Staked",
      "type": "event"
    },
    {
      "anonymous": false,
      "inputs": [
        {
          "indexed": true,
          "internalType": "address",
          "name": "wallet",
          "type": "address"
        },
        {
          "indexed": false,
          "internalType": "uint256",
          "name": "amount",
          "type": "uint256"
        },
        {
          "indexed": false,
          "internalType": "uint256",
          "name": "date",
          "type": "uint256"
        }
      ],
      "name": "Withdraw",
      "type": "event"
    },
    {
      "inputs": [],
      "name": "DEFAULT_ADMIN_ROLE",
      "outputs": [
        {
          "internalType": "bytes32",
          "name": "",
          "type": "bytes32"
        }
      ],
      "stateMutability": "view",
      "type": "function"
    },
    {
      "inputs": [],
      "name": "MAX_TIME",
      "outputs": [
        {
          "internalType": "uint48",
          "name": "",
          "type": "uint48"
        }
      ],
      "stateMutability": "view",
      "type": "function"
    },
    {
      "inputs": [],
      "name": "endTimestamp",
      "outputs": [
        {
          "internalType": "uint48",
          "name": "",
          "type": "uint48"
        }
      ],
      "stateMutability": "view",
      "type": "function"
    },
    {
      "inputs": [
        {
          "internalType": "bytes32",
          "name": "role",
          "type": "bytes32"
        }
      ],
      "name": "getRoleAdmin",
      "outputs": [
        {
          "internalType": "bytes32",
          "name": "",
          "type": "bytes32"
        }
      ],
      "stateMutability": "view",
      "type": "function"
    },
    {
      "inputs": [
        {
          "internalType": "bytes32",
          "name": "role",
          "type": "bytes32"
        },
        {
          "internalType": "address",
          "name": "account",
          "type": "address"
        }
      ],
      "name": "grantRole",
      "outputs": [],
      "stateMutability": "nonpayable",
      "type": "function"
    },
    {
      "inputs": [
        {
          "internalType": "bytes32",
          "name": "role",
          "type": "bytes32"
        },
        {
          "internalType": "address",
          "name": "account",
          "type": "address"
        }
      ],
      "name": "hasRole",
      "outputs": [
        {
          "internalType": "bool",
          "name": "",
          "type": "bool"
        }
      ],
      "stateMutability": "view",
      "type": "function"
    },
    {
      "inputs": [],
      "name": "lockPercent",
      "outputs": [
        {
          "internalType": "uint8",
          "name": "",
          "type": "uint8"
        }
      ],
      "stateMutability": "view",
      "type": "function"
    },
    {
      "inputs": [],
      "name": "lockTimestamp",
      "outputs": [
        {
          "internalType": "uint48",
          "name": "",
          "type": "uint48"
        }
      ],
      "stateMutability": "view",
      "type": "function"
    },
    {
      "inputs": [
        {
          "internalType": "bytes32",
          "name": "role",
          "type": "bytes32"
        },
        {
          "internalType": "address",
          "name": "account",
          "type": "address"
        }
      ],
      "name": "renounceRole",
      "outputs": [],
      "stateMutability": "nonpayable",
      "type": "function"
    },
    {
      "inputs": [
        {
          "internalType": "bytes32",
          "name": "role",
          "type": "bytes32"
        },
        {
          "internalType": "address",
          "name": "account",
          "type": "address"
        }
      ],
      "name": "revokeRole",
      "outputs": [],
      "stateMutability": "nonpayable",
      "type": "function"
    },
    {
      "inputs": [
        {
          "internalType": "address",
          "name": "",
          "type": "address"
        }
      ],
      "name": "stakes",
      "outputs": [
        {
          "internalType": "address",
          "name": "user",
          "type": "address"
        },
        {
          "internalType": "uint256",
          "name": "amount",
          "type": "uint256"
        },
        {
          "internalType": "uint256",
          "name": "point",
          "type": "uint256"
        },
        {
          "internalType": "uint256",
          "name": "maxPoint",
          "type": "uint256"
        },
        {
          "internalType": "uint48",
          "name": "lastCalculatedTimestamp",
          "type": "uint48"
        },
        {
          "internalType": "uint8",
          "name": "isLocked",
          "type": "uint8"
        }
      ],
      "stateMutability": "view",
      "type": "function"
    },
    {
      "inputs": [],
      "name": "stakingToken",
      "outputs": [
        {
          "internalType": "contract ERC20",
          "name": "",
          "type": "address"
        }
      ],
      "stateMutability": "view",
      "type": "function"
    },
    {
      "inputs": [],
      "name": "startTimestamp",
      "outputs": [
        {
          "internalType": "uint48",
          "name": "",
          "type": "uint48"
        }
      ],
      "stateMutability": "view",
      "type": "function"
    },
    {
      "inputs": [
        {
          "internalType": "bytes4",
          "name": "interfaceId",
          "type": "bytes4"
        }
      ],
      "name": "supportsInterface",
      "outputs": [
        {
          "internalType": "bool",
          "name": "",
          "type": "bool"
        }
      ],
      "stateMutability": "view",
      "type": "function"
    },
    {
      "inputs": [],
      "name": "tokenTotalStaked",
      "outputs": [
        {
          "internalType": "uint256",
          "name": "",
          "type": "uint256"
        }
      ],
      "stateMutability": "view",
      "type": "function"
    },
    {
      "inputs": [
        {
          "internalType": "address",
          "name": "_staker",
          "type": "address"
        }
      ],
      "name": "stakePoint",
      "outputs": [
        {
          "internalType": "uint256",
          "name": "",
          "type": "uint256"
        }
      ],
      "stateMutability": "view",
      "type": "function"
    },
    {
      "inputs": [
        {
          "internalType": "address",
          "name": "_staker",
          "type": "address"
        }
      ],
      "name": "stakeAmount",
      "outputs": [
        {
          "internalType": "uint256",
          "name": "",
          "type": "uint256"
        }
      ],
      "stateMutability": "view",
      "type": "function"
    },
    {
      "inputs": [
        {
          "internalType": "address",
          "name": "_staker",
          "type": "address"
        }
      ],
      "name": "balanceOf",
      "outputs": [
        {
          "internalType": "uint256",
          "name": "",
          "type": "uint256"
        }
      ],
      "stateMutability": "view",
      "type": "function"
    },
    {
      "inputs": [
        {
          "internalType": "uint48",
          "name": "_lockTime",
          "type": "uint48"
        }
      ],
      "name": "setLockTimestamp",
      "outputs": [],
      "stateMutability": "nonpayable",
      "type": "function"
    },
    {
      "inputs": [
        {
          "internalType": "address[]",
          "name": "_wallets",
          "type": "address[]"
        }
      ],
      "name": "unlock",
      "outputs": [],
      "stateMutability": "nonpayable",
      "type": "function"
    },
    {
      "inputs": [],
      "name": "getUnlockTime",
      "outputs": [
        {
          "internalType": "uint48",
          "name": "",
          "type": "uint48"
        }
      ],
      "stateMutability": "view",
      "type": "function"
    },
    {
      "inputs": [],
      "name": "getAllStakers",
      "outputs": [
        {
          "internalType": "address[]",
          "name": "",
          "type": "address[]"
        }
      ],
      "stateMutability": "view",
      "type": "function"
    },
    {
      "inputs": [
        {
          "internalType": "address",
          "name": "_staker",
          "type": "address"
        }
      ],
      "name": "getPoint",
      "outputs": [
        {
          "internalType": "uint256",
          "name": "",
          "type": "uint256"
        }
      ],
      "stateMutability": "view",
      "type": "function"
    },
    {
      "inputs": [
        {
          "internalType": "address",
          "name": "_wallet",
          "type": "address"
        }
      ],
      "name": "amount_canWithdraw",
      "outputs": [
        {
          "internalType": "uint256",
          "name": "",
          "type": "uint256"
        }
      ],
      "stateMutability": "view",
      "type": "function"
    },
    {
      "inputs": [],
      "name": "stakeAmount_msgSender",
      "outputs": [
        {
          "internalType": "uint256",
          "name": "",
          "type": "uint256"
        }
      ],
      "stateMutability": "view",
      "type": "function"
    },
    {
      "inputs": [],
      "name": "stakePoint_msgSender",
      "outputs": [
        {
          "internalType": "uint256",
          "name": "",
          "type": "uint256"
        }
      ],
      "stateMutability": "view",
      "type": "function"
    },
    {
      "inputs": [],
      "name": "amount_canWithdraw_msgSender",
      "outputs": [
        {
          "internalType": "uint256",
          "name": "",
          "type": "uint256"
        }
      ],
      "stateMutability": "view",
      "type": "function"
    },
    {
      "inputs": [
        {
          "internalType": "uint256",
          "name": "_amount",
          "type": "uint256"
        }
      ],
      "name": "stake",
      "outputs": [
        {
          "internalType": "uint256",
          "name": "",
          "type": "uint256"
        }
      ],
      "stateMutability": "nonpayable",
      "type": "function"
    },
    {
      "inputs": [
        {
          "internalType": "uint256",
          "name": "_amount",
          "type": "uint256"
        }
      ],
      "name": "withdraw",
      "outputs": [
        {
          "internalType": "uint256",
          "name": "",
          "type": "uint256"
        }
      ],
      "stateMutability": "nonpayable",
      "type": "function"
    },
    {
      "inputs": [],
      "name": "withdrawAll",
      "outputs": [
        {
          "internalType": "uint256",
          "name": "",
          "type": "uint256"
        }
      ],
      "stateMutability": "nonpayable",
      "type": "function"
    },
    {
      "inputs": [
        {
          "internalType": "address",
          "name": "_tokenAddress",
          "type": "address"
        }
      ],
      "name": "removeOtherERC20Tokens",
      "outputs": [],
      "stateMutability": "nonpayable",
      "type": "function"
    }
  ],
  "bytecode": "0x60806040526000600255624f1a00600460006101000a81548165ffffffffffff021916908365ffffffffffff1602179055503480156200003e57600080fd5b506040516200418f3803806200418f8339818101604052810190620000649190620005b3565b60018081905550428465ffffffffffff1611620000b8576040517f08c379a0000000000000000000000000000000000000000000000000000000008152600401620000af906200069c565b60405180910390fd5b8265ffffffffffff168465ffffffffffff16106200010d576040517f08c379a0000000000000000000000000000000000000000000000000000000008152600401620001049062000734565b60405180910390fd5b600073ffffffffffffffffffffffffffffffffffffffff168573ffffffffffffffffffffffffffffffffffffffff16141562000180576040517f08c379a00000000000000000000000000000000000000000000000000000000081526004016200017790620007a6565b60405180910390fd5b6301e285008265ffffffffffff1610620001d1576040517f08c379a0000000000000000000000000000000000000000000000000000000008152600401620001c89062000818565b60405180910390fd5b60008160ff16116200021a576040517f08c379a000000000000000000000000000000000000000000000000000000000815260040162000211906200088a565b60405180910390fd5b60648160ff16111562000264576040517f08c379a00000000000000000000000000000000000000000000000000000000081526004016200025b90620008fc565b60405180910390fd5b84600360006101000a81548173ffffffffffffffffffffffffffffffffffffffff021916908373ffffffffffffffffffffffffffffffffffffffff16021790555083600360146101000a81548165ffffffffffff021916908365ffffffffffff160217905550826003601a6101000a81548165ffffffffffff021916908365ffffffffffff16021790555081600460006101000a81548165ffffffffffff021916908365ffffffffffff16021790555080600460066101000a81548160ff021916908360ff160217905550620003446000801b336200034f60201b60201c565b50505050506200091e565b6200036182826200036560201b60201c565b5050565b6200037782826200045660201b60201c565b6200045257600160008084815260200190815260200160002060000160008373ffffffffffffffffffffffffffffffffffffffff1673ffffffffffffffffffffffffffffffffffffffff16815260200190815260200160002060006101000a81548160ff021916908315150217905550620003f7620004c060201b60201c565b73ffffffffffffffffffffffffffffffffffffffff168173ffffffffffffffffffffffffffffffffffffffff16837f2f8788117e7eff1d82e926ec794901d17c78024a50270940304540a733656f0d60405160405180910390a45b5050565b600080600084815260200190815260200160002060000160008373ffffffffffffffffffffffffffffffffffffffff1673ffffffffffffffffffffffffffffffffffffffff16815260200190815260200160002060009054906101000a900460ff16905092915050565b600033905090565b600080fd5b600073ffffffffffffffffffffffffffffffffffffffff82169050919050565b6000620004fa82620004cd565b9050919050565b6200050c81620004ed565b81146200051857600080fd5b50565b6000815190506200052c8162000501565b92915050565b600065ffffffffffff82169050919050565b6200054f8162000532565b81146200055b57600080fd5b50565b6000815190506200056f8162000544565b92915050565b600060ff82169050919050565b6200058d8162000575565b81146200059957600080fd5b50565b600081519050620005ad8162000582565b92915050565b600080600080600060a08688031215620005d257620005d1620004c8565b5b6000620005e2888289016200051b565b9550506020620005f5888289016200055e565b945050604062000608888289016200055e565b93505060606200061b888289016200055e565b92505060806200062e888289016200059c565b9150509295509295909350565b600082825260208201905092915050565b7f537461727454696d65206d757374206f6363757220696e206675747572650000600082015250565b600062000684601e836200063b565b915062000691826200064c565b602082019050919050565b60006020820190508181036000830152620006b78162000675565b9050919050565b7f537461727454696d65206d757374206f63637572206265666f726520456e645460008201527f696d650000000000000000000000000000000000000000000000000000000000602082015250565b60006200071c6023836200063b565b91506200072982620006be565b604082019050919050565b600060208201905081810360008301526200074f816200070d565b9050919050565b7f7374616b696e67546f6b656e2e61646472657373203d3d203000000000000000600082015250565b60006200078e6019836200063b565b91506200079b8262000756565b602082019050919050565b60006020820190508181036000830152620007c1816200077f565b9050919050565b7f6c6f636b54696d65203e3d203336362064617973000000000000000000000000600082015250565b6000620008006014836200063b565b91506200080d82620007c8565b602082019050919050565b600060208201905081810360008301526200083381620007f1565b9050919050565b7f6c6f636b50657263656e74203c3d203000000000000000000000000000000000600082015250565b6000620008726010836200063b565b91506200087f826200083a565b602082019050919050565b60006020820190508181036000830152620008a58162000863565b9050919050565b7f6c6f636b50657263656e74203e20313030000000000000000000000000000000600082015250565b6000620008e46011836200063b565b9150620008f182620008ac565b602082019050919050565b600060208201905081810360008301526200091781620008d5565b9050919050565b613861806200092e6000396000f3fe608060405234801561001057600080fd5b50600436106101e55760003560e01c8063853828b61161010f578063a85adeab116100a2578063d547741f11610071578063d547741f146105d7578063d791de63146105f3578063dc72f7731461060f578063e6fd48bc1461062d576101e5565b8063a85adeab1461053b578063b544bf8314610559578063bf13526714610577578063cdd38447146105a7576101e5565b806391d14854116100de57806391d148541461049f57806391ecdb24146104cf578063a217fddf146104ed578063a694fc3a1461050b576101e5565b8063853828b61461041557806385705ab814610433578063872b26da1461046357806391030cb614610481576101e5565b806348c08280116101875780636bb64e23116101565780636bb64e231461038b5780636e4f88c8146103a957806370a08231146103c757806372f702f3146103f7576101e5565b806348c08280146103055780634ff531b6146103215780635951eff114610351578063602bc62b1461036d576101e5565b806326949984116101c3578063269499841461027f5780632e1a7d4d1461029d5780632f2ff15d146102cd57806336568abe146102e9576101e5565b806301ffc9a7146101ea57806316934fc41461021a578063248a9ca31461024f575b600080fd5b61020460048036038101906101ff91906124d3565b61064b565b604051610211919061251b565b60405180910390f35b610234600480360381019061022f9190612594565b6106c5565b60405161024696959493929190612626565b60405180910390f35b610269600480360381019061026491906126bd565b610740565b60405161027691906126f9565b60405180910390f35b61028761075f565b6040516102949190612714565b60405180910390f35b6102b760048036038101906102b2919061275b565b610769565b6040516102c49190612788565b60405180910390f35b6102e760048036038101906102e291906127a3565b6107d0565b005b61030360048036038101906102fe91906127a3565b6107f9565b005b61031f600480360381019061031a919061280f565b61087c565b005b61033b60048036038101906103369190612594565b6108f1565b6040516103489190612788565b60405180910390f35b61036b60048036038101906103669190612594565b610a59565b005b610375610caa565b6040516103829190612714565b60405180910390f35b610393610ce5565b6040516103a09190612788565b60405180910390f35b6103b1610e01565b6040516103be91906128fa565b60405180910390f35b6103e160048036038101906103dc9190612594565b610e8f565b6040516103ee9190612788565b60405180910390f35b6103ff610edb565b60405161040c919061297b565b60405180910390f35b61041d610f01565b60405161042a9190612788565b60405180910390f35b61044d60048036038101906104489190612594565b610f6d565b60405161045a9190612788565b60405180910390f35b61046b6110fa565b6040516104789190612788565b60405180910390f35b610489611100565b6040516104969190612996565b60405180910390f35b6104b960048036038101906104b491906127a3565b611113565b6040516104c6919061251b565b60405180910390f35b6104d761117d565b6040516104e49190612788565b60405180910390f35b6104f561125f565b60405161050291906126f9565b60405180910390f35b6105256004803603810190610520919061275b565b611266565b6040516105329190612788565b60405180910390f35b6105436112cd565b6040516105509190612714565b60405180910390f35b6105616112e5565b60405161056e9190612714565b60405180910390f35b610591600480360381019061058c9190612594565b6112fd565b60405161059e9190612788565b60405180910390f35b6105c160048036038101906105bc9190612594565b611349565b6040516105ce9190612788565b60405180910390f35b6105f160048036038101906105ec91906127a3565b611395565b005b61060d60048036038101906106089190612b0a565b6113be565b005b6106176114d1565b6040516106249190612788565b60405180910390f35b6106356115b3565b6040516106429190612714565b60405180910390f35b60007f7965db0b000000000000000000000000000000000000000000000000000000007bffffffffffffffffffffffffffffffffffffffffffffffffffffffff1916827bffffffffffffffffffffffffffffffffffffffffffffffffffffffff191614806106be57506106bd826115cb565b5b9050919050565b60056020528060005260406000206000915090508060000160009054906101000a900473ffffffffffffffffffffffffffffffffffffffff16908060010154908060020154908060030154908060040160009054906101000a900465ffffffffffff16908060040160069054906101000a900460ff16905086565b6000806000838152602001908152602001600020600101549050919050565b65ffffffffffff81565b6000600260015414156107b1576040517f08c379a00000000000000000000000000000000000000000000000000000000081526004016107a890612bb0565b60405180910390fd5b60026001819055506107c282611635565b905060018081905550919050565b6107d982610740565b6107ea816107e5611953565b61195b565b6107f483836119f8565b505050565b610801611953565b73ffffffffffffffffffffffffffffffffffffffff168173ffffffffffffffffffffffffffffffffffffffff161461086e576040517f08c379a000000000000000000000000000000000000000000000000000000000815260040161086590612c42565b60405180910390fd5b6108788282611ad8565b5050565b6000801b6108918161088c611953565b61195b565b81600460006101000a81548165ffffffffffff021916908365ffffffffffff1602179055507f0ae45b27c12066c3965654ff0387866ca9a280bf8dc46dcda4485c7c3f483d9f826040516108e59190612714565b60405180910390a15050565b600080426003601a9054906101000a900465ffffffffffff1665ffffffffffff1611610939576003601a9054906101000a900465ffffffffffff1665ffffffffffff1661093b565b425b90506000600560008573ffffffffffffffffffffffffffffffffffffffff1673ffffffffffffffffffffffffffffffffffffffff16815260200190815260200160002090508060030154816002015414806109b35750818160040160009054906101000a900465ffffffffffff1665ffffffffffff16145b156109c657806002015492505050610a54565b6000670de0b6b3a764000082600101546109e09190612cc0565b610e108360040160009054906101000a900465ffffffffffff1665ffffffffffff1685610a0d9190612cf1565b610a179190612cc0565b610a219190612d25565b8260020154610a309190612d7f565b90508160030154811115610a4d5781600301549350505050610a54565b8093505050505b919050565b6000801b610a6e81610a69611953565b61195b565b600360009054906101000a900473ffffffffffffffffffffffffffffffffffffffff1673ffffffffffffffffffffffffffffffffffffffff168273ffffffffffffffffffffffffffffffffffffffff161415610aff576040517f08c379a0000000000000000000000000000000000000000000000000000000008152600401610af690612e21565b60405180910390fd5b600082905060008173ffffffffffffffffffffffffffffffffffffffff166370a08231856040518263ffffffff1660e01b8152600401610b3f9190612e41565b602060405180830381865afa158015610b5c573d6000803e3d6000fd5b505050506040513d601f19601f82011682018060405250810190610b809190612e71565b90508173ffffffffffffffffffffffffffffffffffffffff1663a9059cbb33836040518363ffffffff1660e01b8152600401610bbd929190612e9e565b6020604051808303816000875af1158015610bdc573d6000803e3d6000fd5b505050506040513d601f19601f82011682018060405250810190610c009190612ef3565b610c3f576040517f08c379a0000000000000000000000000000000000000000000000000000000008152600401610c3690612f6c565b60405180910390fd5b3373ffffffffffffffffffffffffffffffffffffffff168473ffffffffffffffffffffffffffffffffffffffff167f4c9443772ec3472e2ea8a88e5c31e6bb75e94541dc672d5ca2a1197ada10b59883604051610c9c9190612788565b60405180910390a350505050565b6000600460009054906101000a900465ffffffffffff166003601a9054906101000a900465ffffffffffff16610ce09190612f8c565b905090565b6000338073ffffffffffffffffffffffffffffffffffffffff16600560008373ffffffffffffffffffffffffffffffffffffffff1673ffffffffffffffffffffffffffffffffffffffff16815260200190815260200160002060000160009054906101000a900473ffffffffffffffffffffffffffffffffffffffff1673ffffffffffffffffffffffffffffffffffffffff1614610db8576040517f08c379a0000000000000000000000000000000000000000000000000000000008152600401610daf90613014565b60405180910390fd5b600560003373ffffffffffffffffffffffffffffffffffffffff1673ffffffffffffffffffffffffffffffffffffffff1681526020019081526020016000206001015491505090565b60606006805480602002602001604051908101604052809291908181526020018280548015610e8557602002820191906000526020600020905b8160009054906101000a900473ffffffffffffffffffffffffffffffffffffffff1673ffffffffffffffffffffffffffffffffffffffff1681526020019060010190808311610e3b575b5050505050905090565b6000600560008373ffffffffffffffffffffffffffffffffffffffff1673ffffffffffffffffffffffffffffffffffffffff168152602001908152602001600020600101549050919050565b600360009054906101000a900473ffffffffffffffffffffffffffffffffffffffff1681565b600060026001541415610f49576040517f08c379a0000000000000000000000000000000000000000000000000000000008152600401610f4090612bb0565b60405180910390fd5b6002600181905550610f61610f5c61117d565b611635565b90506001808190555090565b6000804290506000600560008573ffffffffffffffffffffffffffffffffffffffff1673ffffffffffffffffffffffffffffffffffffffff16815260200190815260200160002090508373ffffffffffffffffffffffffffffffffffffffff168160000160009054906101000a900473ffffffffffffffffffffffffffffffffffffffff1673ffffffffffffffffffffffffffffffffffffffff1614611018576000925050506110f5565b6003601a9054906101000a900465ffffffffffff1665ffffffffffff168210806110845750600460009054906101000a900465ffffffffffff1665ffffffffffff166003601a9054906101000a900465ffffffffffff1665ffffffffffff16836110829190612cf1565b115b806110a3575060008160040160069054906101000a900460ff1660ff16145b156110b6578060010154925050506110f5565b600460069054906101000a900460ff1660646110d29190613034565b60ff16606482600101546110e69190612cc0565b6110f09190612d25565b925050505b919050565b60025481565b600460069054906101000a900460ff1681565b600080600084815260200190815260200160002060000160008373ffffffffffffffffffffffffffffffffffffffff1673ffffffffffffffffffffffffffffffffffffffff16815260200190815260200160002060009054906101000a900460ff16905092915050565b6000338073ffffffffffffffffffffffffffffffffffffffff16600560008373ffffffffffffffffffffffffffffffffffffffff1673ffffffffffffffffffffffffffffffffffffffff16815260200190815260200160002060000160009054906101000a900473ffffffffffffffffffffffffffffffffffffffff1673ffffffffffffffffffffffffffffffffffffffff1614611250576040517f08c379a000000000000000000000000000000000000000000000000000000000815260040161124790613014565b60405180910390fd5b61125933610f6d565b91505090565b6000801b81565b6000600260015414156112ae576040517f08c379a00000000000000000000000000000000000000000000000000000000081526004016112a590612bb0565b60405180910390fd5b60026001819055506112bf82611bb9565b905060018081905550919050565b6003601a9054906101000a900465ffffffffffff1681565b600460009054906101000a900465ffffffffffff1681565b6000600560008373ffffffffffffffffffffffffffffffffffffffff1673ffffffffffffffffffffffffffffffffffffffff168152602001908152602001600020600101549050919050565b6000600560008373ffffffffffffffffffffffffffffffffffffffff1673ffffffffffffffffffffffffffffffffffffffff168152602001908152602001600020600201549050919050565b61139e82610740565b6113af816113aa611953565b61195b565b6113b98383611ad8565b505050565b6000801b6113d3816113ce611953565b61195b565b6003601a9054906101000a900465ffffffffffff1665ffffffffffff164211611431576040517f08c379a0000000000000000000000000000000000000000000000000000000008152600401611428906130b4565b60405180910390fd5b60005b82518110156114cc57600060056000858481518110611456576114556130d4565b5b602002602001015173ffffffffffffffffffffffffffffffffffffffff1673ffffffffffffffffffffffffffffffffffffffff168152602001908152602001600020905060008160040160066101000a81548160ff021916908360ff1602179055505080806114c490613103565b915050611434565b505050565b6000338073ffffffffffffffffffffffffffffffffffffffff16600560008373ffffffffffffffffffffffffffffffffffffffff1673ffffffffffffffffffffffffffffffffffffffff16815260200190815260200160002060000160009054906101000a900473ffffffffffffffffffffffffffffffffffffffff1673ffffffffffffffffffffffffffffffffffffffff16146115a4576040517f08c379a000000000000000000000000000000000000000000000000000000000815260040161159b90613014565b60405180910390fd5b6115ad336108f1565b91505090565b600360149054906101000a900465ffffffffffff1681565b60007f01ffc9a7000000000000000000000000000000000000000000000000000000007bffffffffffffffffffffffffffffffffffffffffffffffffffffffff1916827bffffffffffffffffffffffffffffffffffffffffffffffffffffffff1916149050919050565b6000808211611679576040517f08c379a000000000000000000000000000000000000000000000000000000000815260040161167090613198565b60405180910390fd5b6000600560003373ffffffffffffffffffffffffffffffffffffffff1673ffffffffffffffffffffffffffffffffffffffff16815260200190815260200160002090506116c461117d565b831115611706576040517f08c379a00000000000000000000000000000000000000000000000000000000081526004016116fd9061322a565b60405180910390fd5b600042905061171484612173565b73ffffffffffffffffffffffffffffffffffffffff1682600101600082825461173d9190612cf1565b9250508190555083600260008282546117569190612cf1565b925050819055506003601a9054906101000a900465ffffffffffff1665ffffffffffff16811161181257670de0b6b3a764000082600101546117989190612cc0565b610e10600360149054906101000a900465ffffffffffff166003601a9054906101000a900465ffffffffffff166117cf919061324a565b6117d9919061327e565b65ffffffffffff166117eb9190612d25565b826003018190555081600301548260020154111561181157816003015482600201819055505b5b600360009054906101000a900473ffffffffffffffffffffffffffffffffffffffff1673ffffffffffffffffffffffffffffffffffffffff1663a9059cbb33866040518363ffffffff1660e01b815260040161186f929190612e9e565b6020604051808303816000875af115801561188e573d6000803e3d6000fd5b505050506040513d601f19601f820116820180604052508101906118b29190612ef3565b6118f1576040517f08c379a00000000000000000000000000000000000000000000000000000000081526004016118e8906132fb565b60405180910390fd5b3373ffffffffffffffffffffffffffffffffffffffff167ff279e6a1f5e320cca91135676d9cb6e44ca8a08c0b88342bcdb1144f6511b56885611933426121d6565b60405161194192919061334c565b60405180910390a28392505050919050565b600033905090565b6119658282611113565b6119f45761198a8173ffffffffffffffffffffffffffffffffffffffff16601461222b565b6119988360001c602061222b565b6040516020016119a9929190613487565b6040516020818303038152906040526040517f08c379a00000000000000000000000000000000000000000000000000000000081526004016119eb91906134fa565b60405180910390fd5b5050565b611a028282611113565b611ad457600160008084815260200190815260200160002060000160008373ffffffffffffffffffffffffffffffffffffffff1673ffffffffffffffffffffffffffffffffffffffff16815260200190815260200160002060006101000a81548160ff021916908315150217905550611a79611953565b73ffffffffffffffffffffffffffffffffffffffff168173ffffffffffffffffffffffffffffffffffffffff16837f2f8788117e7eff1d82e926ec794901d17c78024a50270940304540a733656f0d60405160405180910390a45b5050565b611ae28282611113565b15611bb557600080600084815260200190815260200160002060000160008373ffffffffffffffffffffffffffffffffffffffff1673ffffffffffffffffffffffffffffffffffffffff16815260200190815260200160002060006101000a81548160ff021916908315150217905550611b5a611953565b73ffffffffffffffffffffffffffffffffffffffff168173ffffffffffffffffffffffffffffffffffffffff16837ff6391f5c32d9c69d2a47ea670b442974b53935d1edc7fd64eb21e047a839171b60405160405180910390a45b5050565b6000808211611bfd576040517f08c379a0000000000000000000000000000000000000000000000000000000008152600401611bf490613568565b60405180910390fd5b6000611c08426121d6565b9050600360149054906101000a900465ffffffffffff1665ffffffffffff168165ffffffffffff161015611c71576040517f08c379a0000000000000000000000000000000000000000000000000000000008152600401611c68906135fa565b60405180910390fd5b6003601a9054906101000a900465ffffffffffff1665ffffffffffff168165ffffffffffff1610611cd7576040517f08c379a0000000000000000000000000000000000000000000000000000000008152600401611cce90613666565b60405180910390fd5b600360009054906101000a900473ffffffffffffffffffffffffffffffffffffffff1673ffffffffffffffffffffffffffffffffffffffff166323b872dd3330866040518463ffffffff1660e01b8152600401611d3693929190613686565b6020604051808303816000875af1158015611d55573d6000803e3d6000fd5b505050506040513d601f19601f82011682018060405250810190611d799190612ef3565b611db8576040517f08c379a0000000000000000000000000000000000000000000000000000000008152600401611daf90612f6c565b60405180910390fd5b6000600560003373ffffffffffffffffffffffffffffffffffffffff1673ffffffffffffffffffffffffffffffffffffffff16815260200190815260200160002090503373ffffffffffffffffffffffffffffffffffffffff168160000160009054906101000a900473ffffffffffffffffffffffffffffffffffffffff1673ffffffffffffffffffffffffffffffffffffffff1614611f93576006339080600181540180825580915050600190039060005260206000200160009091909190916101000a81548173ffffffffffffffffffffffffffffffffffffffff021916908373ffffffffffffffffffffffffffffffffffffffff16021790555033600560003373ffffffffffffffffffffffffffffffffffffffff1673ffffffffffffffffffffffffffffffffffffffff16815260200190815260200160002060000160006101000a81548173ffffffffffffffffffffffffffffffffffffffff021916908373ffffffffffffffffffffffffffffffffffffffff1602179055506001600560003373ffffffffffffffffffffffffffffffffffffffff1673ffffffffffffffffffffffffffffffffffffffff16815260200190815260200160002060040160066101000a81548160ff021916908360ff1602179055505b6000670de0b6b3a76400008260010154611fad9190612cc0565b610e108360040160009054906101000a900465ffffffffffff1685611fd2919061324a565b611fdc919061327e565b65ffffffffffff16611fee9190612d25565b8260020154611ffd9190612d7f565b9050828260040160006101000a81548165ffffffffffff021916908365ffffffffffff16021790555061203e8583600101546120399190612d7f565b612173565b73ffffffffffffffffffffffffffffffffffffffff168260010181905550670de0b6b3a764000082600101546120749190612cc0565b610e10600360149054906101000a900465ffffffffffff166003601a9054906101000a900465ffffffffffff166120ab919061324a565b6120b5919061327e565b65ffffffffffff166120c79190612d25565b826003018190555081600301548111156120ed57816003015482600201819055506120f7565b8082600201819055505b84600260008282546121099190612d7f565b925050819055503373ffffffffffffffffffffffffffffffffffffffff167f1449c6dd7851abc30abf37f57715f492010519147cc2652fbc38202c18a6ee9086612152426121d6565b60405161216092919061334c565b60405180910390a2849350505050919050565b600073ffffffffffffffffffffffffffffffffffffffff80168211156121ce576040517f08c379a00000000000000000000000000000000000000000000000000000000081526004016121c590613709565b60405180910390fd5b819050919050565b600065ffffffffffff8016821115612223576040517f08c379a000000000000000000000000000000000000000000000000000000000815260040161221a90613775565b60405180910390fd5b819050919050565b60606000600283600261223e9190612d25565b6122489190612d7f565b67ffffffffffffffff811115612261576122606129c7565b5b6040519080825280601f01601f1916602001820160405280156122935781602001600182028036833780820191505090505b5090507f3000000000000000000000000000000000000000000000000000000000000000816000815181106122cb576122ca6130d4565b5b60200101907effffffffffffffffffffffffffffffffffffffffffffffffffffffffffffff1916908160001a9053507f78000000000000000000000000000000000000000000000000000000000000008160018151811061232f5761232e6130d4565b5b60200101907effffffffffffffffffffffffffffffffffffffffffffffffffffffffffffff1916908160001a9053506000600184600261236f9190612d25565b6123799190612d7f565b90505b6001811115612419577f3031323334353637383961626364656600000000000000000000000000000000600f8616601081106123bb576123ba6130d4565b5b1a60f81b8282815181106123d2576123d16130d4565b5b60200101907effffffffffffffffffffffffffffffffffffffffffffffffffffffffffffff1916908160001a905350600485901c94508061241290613795565b905061237c565b506000841461245d576040517f08c379a00000000000000000000000000000000000000000000000000000000081526004016124549061380b565b60405180910390fd5b8091505092915050565b6000604051905090565b600080fd5b600080fd5b60007fffffffff0000000000000000000000000000000000000000000000000000000082169050919050565b6124b08161247b565b81146124bb57600080fd5b50565b6000813590506124cd816124a7565b92915050565b6000602082840312156124e9576124e8612471565b5b60006124f7848285016124be565b91505092915050565b60008115159050919050565b61251581612500565b82525050565b6000602082019050612530600083018461250c565b92915050565b600073ffffffffffffffffffffffffffffffffffffffff82169050919050565b600061256182612536565b9050919050565b61257181612556565b811461257c57600080fd5b50565b60008135905061258e81612568565b92915050565b6000602082840312156125aa576125a9612471565b5b60006125b88482850161257f565b91505092915050565b6125ca81612556565b82525050565b6000819050919050565b6125e3816125d0565b82525050565b600065ffffffffffff82169050919050565b612604816125e9565b82525050565b600060ff82169050919050565b6126208161260a565b82525050565b600060c08201905061263b60008301896125c1565b61264860208301886125da565b61265560408301876125da565b61266260608301866125da565b61266f60808301856125fb565b61267c60a0830184612617565b979650505050505050565b6000819050919050565b61269a81612687565b81146126a557600080fd5b50565b6000813590506126b781612691565b92915050565b6000602082840312156126d3576126d2612471565b5b60006126e1848285016126a8565b91505092915050565b6126f381612687565b82525050565b600060208201905061270e60008301846126ea565b92915050565b600060208201905061272960008301846125fb565b92915050565b612738816125d0565b811461274357600080fd5b50565b6000813590506127558161272f565b92915050565b60006020828403121561277157612770612471565b5b600061277f84828501612746565b91505092915050565b600060208201905061279d60008301846125da565b92915050565b600080604083850312156127ba576127b9612471565b5b60006127c8858286016126a8565b92505060206127d98582860161257f565b9150509250929050565b6127ec816125e9565b81146127f757600080fd5b50565b600081359050612809816127e3565b92915050565b60006020828403121561282557612824612471565b5b6000612833848285016127fa565b91505092915050565b600081519050919050565b600082825260208201905092915050565b6000819050602082019050919050565b61287181612556565b82525050565b60006128838383612868565b60208301905092915050565b6000602082019050919050565b60006128a78261283c565b6128b18185612847565b93506128bc83612858565b8060005b838110156128ed5781516128d48882612877565b97506128df8361288f565b9250506001810190506128c0565b5085935050505092915050565b60006020820190508181036000830152612914818461289c565b905092915050565b6000819050919050565b600061294161293c61293784612536565b61291c565b612536565b9050919050565b600061295382612926565b9050919050565b600061296582612948565b9050919050565b6129758161295a565b82525050565b6000602082019050612990600083018461296c565b92915050565b60006020820190506129ab6000830184612617565b92915050565b600080fd5b6000601f19601f8301169050919050565b7f4e487b7100000000000000000000000000000000000000000000000000000000600052604160045260246000fd5b6129ff826129b6565b810181811067ffffffffffffffff82111715612a1e57612a1d6129c7565b5b80604052505050565b6000612a31612467565b9050612a3d82826129f6565b919050565b600067ffffffffffffffff821115612a5d57612a5c6129c7565b5b602082029050602081019050919050565b600080fd5b6000612a86612a8184612a42565b612a27565b90508083825260208201905060208402830185811115612aa957612aa8612a6e565b5b835b81811015612ad25780612abe888261257f565b845260208401935050602081019050612aab565b5050509392505050565b600082601f830112612af157612af06129b1565b5b8135612b01848260208601612a73565b91505092915050565b600060208284031215612b2057612b1f612471565b5b600082013567ffffffffffffffff811115612b3e57612b3d612476565b5b612b4a84828501612adc565b91505092915050565b600082825260208201905092915050565b7f5265656e7472616e637947756172643a207265656e7472616e742063616c6c00600082015250565b6000612b9a601f83612b53565b9150612ba582612b64565b602082019050919050565b60006020820190508181036000830152612bc981612b8d565b9050919050565b7f416363657373436f6e74726f6c3a2063616e206f6e6c792072656e6f756e636560008201527f20726f6c657320666f722073656c660000000000000000000000000000000000602082015250565b6000612c2c602f83612b53565b9150612c3782612bd0565b604082019050919050565b60006020820190508181036000830152612c5b81612c1f565b9050919050565b7f4e487b7100000000000000000000000000000000000000000000000000000000600052601260045260246000fd5b7f4e487b7100000000000000000000000000000000000000000000000000000000600052601160045260246000fd5b6000612ccb826125d0565b9150612cd6836125d0565b925082612ce657612ce5612c62565b5b828204905092915050565b6000612cfc826125d0565b9150612d07836125d0565b925082821015612d1a57612d19612c91565b5b828203905092915050565b6000612d30826125d0565b9150612d3b836125d0565b9250817fffffffffffffffffffffffffffffffffffffffffffffffffffffffffffffffff0483118215151615612d7457612d73612c91565b5b828202905092915050565b6000612d8a826125d0565b9150612d95836125d0565b9250827fffffffffffffffffffffffffffffffffffffffffffffffffffffffffffffffff03821115612dca57612dc9612c91565b5b828201905092915050565b7f63616e206e6f74207769746864726177207374616b696e6720746f6b656e0000600082015250565b6000612e0b601e83612b53565b9150612e1682612dd5565b602082019050919050565b60006020820190508181036000830152612e3a81612dfe565b9050919050565b6000602082019050612e5660008301846125c1565b92915050565b600081519050612e6b8161272f565b92915050565b600060208284031215612e8757612e86612471565b5b6000612e9584828501612e5c565b91505092915050565b6000604082019050612eb360008301856125c1565b612ec060208301846125da565b9392505050565b612ed081612500565b8114612edb57600080fd5b50565b600081519050612eed81612ec7565b92915050565b600060208284031215612f0957612f08612471565b5b6000612f1784828501612ede565b91505092915050565b7f657263323020776f726b6564206661696c656400000000000000000000000000600082015250565b6000612f56601383612b53565b9150612f6182612f20565b602082019050919050565b60006020820190508181036000830152612f8581612f49565b9050919050565b6000612f97826125e9565b9150612fa2836125e9565b92508265ffffffffffff03821115612fbd57612fbc612c91565b5b828201905092915050565b7f596f7520617265206e6f742061207374616b6572000000000000000000000000600082015250565b6000612ffe601483612b53565b915061300982612fc8565b602082019050919050565b6000602082019050818103600083015261302d81612ff1565b9050919050565b600061303f8261260a565b915061304a8361260a565b92508282101561305d5761305c612c91565b5b828203905092915050565b7f5374616b6520706572696f64206d75737420626520656e646564000000000000600082015250565b600061309e601a83612b53565b91506130a982613068565b602082019050919050565b600060208201905081810360008301526130cd81613091565b9050919050565b7f4e487b7100000000000000000000000000000000000000000000000000000000600052603260045260246000fd5b600061310e826125d0565b91507fffffffffffffffffffffffffffffffffffffffffffffffffffffffffffffffff82141561314157613140612c91565b5b600182019050919050565b7f776974686472617720616d6f756e74203c203000000000000000000000000000600082015250565b6000613182601383612b53565b915061318d8261314c565b602082019050919050565b600060208201905081810360008301526131b181613175565b9050919050565b7f43616e206e6f74207769746864726177206d6f7265207468616e20796f75206360008201527f616e000000000000000000000000000000000000000000000000000000000000602082015250565b6000613214602283612b53565b915061321f826131b8565b604082019050919050565b6000602082019050818103600083015261324381613207565b9050919050565b6000613255826125e9565b9150613260836125e9565b92508282101561327357613272612c91565b5b828203905092915050565b6000613289826125e9565b9150613294836125e9565b9250826132a4576132a3612c62565b5b828204905092915050565b7f455243323020776f726b6564206661696c656400000000000000000000000000600082015250565b60006132e5601383612b53565b91506132f0826132af565b602082019050919050565b60006020820190508181036000830152613314816132d8565b9050919050565b600061333661333161332c846125e9565b61291c565b6125d0565b9050919050565b6133468161331b565b82525050565b600060408201905061336160008301856125da565b61336e602083018461333d565b9392505050565b600081905092915050565b7f416363657373436f6e74726f6c3a206163636f756e7420000000000000000000600082015250565b60006133b6601783613375565b91506133c182613380565b601782019050919050565b600081519050919050565b60005b838110156133f55780820151818401526020810190506133da565b83811115613404576000848401525b50505050565b6000613415826133cc565b61341f8185613375565b935061342f8185602086016133d7565b80840191505092915050565b7f206973206d697373696e6720726f6c6520000000000000000000000000000000600082015250565b6000613471601183613375565b915061347c8261343b565b601182019050919050565b6000613492826133a9565b915061349e828561340a565b91506134a982613464565b91506134b5828461340a565b91508190509392505050565b60006134cc826133cc565b6134d68185612b53565b93506134e68185602086016133d7565b6134ef816129b6565b840191505092915050565b6000602082019050818103600083015261351481846134c1565b905092915050565b7f7374616b6520616d6f756e74206d757374206265203e20300000000000000000600082015250565b6000613552601883612b53565b915061355d8261351c565b602082019050919050565b6000602082019050818103600083015261358181613545565b9050919050565b7f5374616b696e6720706572696f6420686173206e6f742073746172746564207960008201527f6574000000000000000000000000000000000000000000000000000000000000602082015250565b60006135e4602283612b53565b91506135ef82613588565b604082019050919050565b60006020820190508181036000830152613613816135d7565b9050919050565b7f5374616b696e6720706572696f6420686173206265656e20656e646564000000600082015250565b6000613650601d83612b53565b915061365b8261361a565b602082019050919050565b6000602082019050818103600083015261367f81613643565b9050919050565b600060608201905061369b60008301866125c1565b6136a860208301856125c1565b6136b560408301846125da565b949350505050565b7f76616c756520646f65736e27742066697420696e203136302062697473000000600082015250565b60006136f3601d83612b53565b91506136fe826136bd565b602082019050919050565b60006020820190508181036000830152613722816136e6565b9050919050565b7f76616c756520646f65736e27742066697420696e203438206269747300000000600082015250565b600061375f601c83612b53565b915061376a82613729565b602082019050919050565b6000602082019050818103600083015261378e81613752565b9050919050565b60006137a0826125d0565b915060008214156137b4576137b3612c91565b5b600182039050919050565b7f537472696e67733a20686578206c656e67746820696e73756666696369656e74600082015250565b60006137f5602083612b53565b9150613800826137bf565b602082019050919050565b60006020820190508181036000830152613824816137e8565b905091905056fea2646970667358221220f18f523c37911201ae6f2bc22f83e4c8830fe86d20e2e7edf2961c6bcedb2b3e64736f6c634300080b0033",
  "immutableReferences": {},
  "source": "//SPDX-License-Identifier: UNLICENSED\r\npragma solidity ^0.8.8; \r\n\r\nimport '../node_modules/@openzeppelin/contracts/utils/math/SafeMath.sol';\r\n\r\nimport '../node_modules/@openzeppelin/contracts/token/ERC20/ERC20.sol';\r\n\r\nimport '../node_modules/@openzeppelin/contracts/access/AccessControl.sol';\r\nimport '../node_modules/@openzeppelin/contracts/security/ReentrancyGuard.sol'; // OZ contracts v4\r\n\r\n/**\r\n* @notice Stakeable is a contract who is ment to be inherited by other contract that wants Staking capabilities\r\n*/\r\ncontract DreStake is AccessControl, ReentrancyGuard {\r\n    using SafeMath for uint256;\r\n\r\n    uint48 public constant MAX_TIME = type(uint48).max; // = 2^48 - 1\r\n\r\n    uint256 public tokenTotalStaked = 0; // sum of all staked tokens\r\n    ERC20 public stakingToken;     /*Token address */\r\n    uint48 public startTimestamp;\r\n    uint48 public endTimestamp;\r\n    uint48 public lockTimestamp = 60 days;\r\n    uint8 public lockPercent;\r\n\r\n    constructor(address _stakingToken, uint48 _startTime, uint48 _endTime, uint48 _lockTime, uint8 _lockPercent) {\r\n        require(_startTime > block.timestamp, \"StartTime must occur in future\");\r\n        require(_startTime < _endTime, \"StartTime must occur before EndTime\");\r\n        require(_stakingToken != address(0), \"stakingToken.address == 0\");\r\n        require(_lockTime < 366 days, \"lockTime >= 366 days\");\r\n        require(_lockPercent > 0, \"lockPercent <= 0\");\r\n        require(_lockPercent <= 100, \"lockPercent > 100\");\r\n        stakingToken = ERC20(_stakingToken);\r\n        startTimestamp = _startTime;\r\n        endTimestamp = _endTime;\r\n        lockTimestamp = _lockTime;\r\n        lockPercent = _lockPercent;\r\n        // set some defaults\r\n        _setupRole(DEFAULT_ADMIN_ROLE, msg.sender);\r\n    }\r\n\r\n    /**\r\n     * based on OpenZeppelin SafeCast v4.3\r\n     * https://github.com/OpenZeppelin/openzeppelin-contracts/blob/release-v4.3/contracts/utils/math/SafeCast.sol\r\n     */\r\n\r\n    function toUint48(uint256 value) internal pure returns (uint48) {\r\n        require(value <= type(uint48).max, \"value doesn't fit in 48 bits\");\r\n        return uint48(value);\r\n    }\r\n\r\n    function toUint160(uint256 value) internal pure returns (uint160) {\r\n        require(value <= type(uint160).max, \"value doesn't fit in 160 bits\");\r\n        return uint160(value);\r\n    }\r\n\r\n\r\n    \r\n    /**\r\n     * @notice\r\n     * A stake struct is used to represent the way we store stakes, \r\n     * A Stake will contain the users address, the amount staked and a timestamp, \r\n     * Since which is when the stake was made\r\n     */\r\n    struct Stake{\r\n        address user;\r\n        uint256 amount;\r\n        uint256 point;\r\n        uint256 maxPoint;\r\n        uint48 lastCalculatedTimestamp;\r\n        uint8 isLocked;\r\n    }\r\n\r\n    /**\r\n    * @notice \r\n    * stakes is used to keep track of the INDEX for the stakers in the stakes array\r\n     */\r\n    mapping(address => Stake) public stakes;\r\n    address[] stakers;\r\n    /**\r\n    * @notice Staked event is triggered whenever a user stakes tokens, address is indexed to make it filterable\r\n     */\r\n    event Staked(address indexed user, uint256 amount, uint256 date);\r\n    event Withdraw(address indexed wallet, uint256 amount, uint256 date);\r\n    event LockTimeChanged(uint48 lockTime);\r\n    event ERC20TokensRemoved(address indexed tokenAddress, address indexed receiver, uint256 amount);\r\n\r\n    /**\r\n     * Modifier\r\n     */\r\n    modifier onlyStaker(address _wallet) {\r\n        require(stakes[_wallet].user == _wallet, \"You are not a staker\");\r\n        _;\r\n    }\r\n\r\n    /**\r\n     * External API functions\r\n     */\r\n\r\n    function stakePoint(address _staker) external view returns (uint256) {\r\n        return stakes[_staker].point;\r\n    }\r\n\r\n    function stakeAmount(address _staker) external view returns (uint256) {\r\n        return stakes[_staker].amount;\r\n    }\r\n\r\n    // redundant with amount() for compatibility\r\n    function balanceOf(address _staker) external view returns (uint256) {\r\n        return stakes[_staker].amount;\r\n    }\r\n\r\n    // onlyOwner / DEFAULT_ADMIN_ROLE functions --------------------------------------------------\r\n    /**\r\n     * @notice set time a user has to wait after calling unlock until staked token can be withdrawn\r\n     * @param _lockTime time in seconds\r\n     */\r\n    function setLockTimestamp(uint48 _lockTime) external onlyRole(DEFAULT_ADMIN_ROLE) {\r\n        lockTimestamp = _lockTime;\r\n        emit LockTimeChanged(_lockTime);\r\n    }\r\n\r\n    function unlock(address[] memory _wallets) external onlyRole(DEFAULT_ADMIN_ROLE) {\r\n        require(block.timestamp > endTimestamp, \"Stake period must be ended\");\r\n        for(uint i = 0; i < _wallets.length; i++) {\r\n            Stake storage user = stakes[_wallets[i]];\r\n            user.isLocked = 0;\r\n        }\r\n    }\r\n\r\n    /**\r\n     * @dev return unix epoch time when staked tokens will be unlocked\r\n     * @dev return MAX_INT_UINT48 = 2**48-1 if user has no token staked\r\n     * @dev this always allows an easy check with : require(block.timestamp > getUnlockTime(account));\r\n     * @return unlockTime unix epoch time in seconds\r\n     */\r\n    function getUnlockTime() public view returns (uint48) {\r\n        return endTimestamp + lockTimestamp;\r\n    }\r\n\r\n    /**\r\n     * @return An address list of all stakers\r\n     */\r\n    function getAllStakers() public view returns (address[] memory) {\r\n        return stakers;\r\n    }\r\n\r\n    /**\r\n     * @return Current accumulated point of staker\r\n     */\r\n    function getPoint(address _staker) public view returns (uint256) {\r\n        uint time = (endTimestamp > block.timestamp) ? block.timestamp : endTimestamp;\r\n        Stake storage staker = stakes[_staker];\r\n        if (staker.point == staker.maxPoint || staker.lastCalculatedTimestamp == time) return staker.point;\r\n        else {\r\n            uint256 currentPoint = staker.point + (time - staker.lastCalculatedTimestamp) / 3600 * (staker.amount / 1000000000000000000);\r\n            if (currentPoint > staker.maxPoint) {\r\n                return staker.maxPoint;\r\n            } else {\r\n                return currentPoint;\r\n            }\r\n        }\r\n    }\r\n\r\n    function amount_canWithdraw(address _wallet) public view returns (uint256) {\r\n        uint current = block.timestamp;\r\n        Stake storage user = stakes[_wallet];\r\n        if (user.user != _wallet) {\r\n            return 0;\r\n        } else if (current < endTimestamp || current - endTimestamp > lockTimestamp || user.isLocked == 0) {\r\n            return user.amount;\r\n        } else {\r\n            return user.amount / 100 * (100 - lockPercent);\r\n        }\r\n    }\r\n\r\n    /** msg.sender external view convenience functions *********************************/\r\n\r\n    function stakeAmount_msgSender() public onlyStaker(msg.sender) view returns (uint256) {\r\n        return stakes[msg.sender].amount;\r\n    }\r\n\r\n    function stakePoint_msgSender() public onlyStaker(msg.sender) view returns(uint256) {\r\n        return getPoint(msg.sender);\r\n    }\r\n\r\n    function amount_canWithdraw_msgSender() public onlyStaker(msg.sender) view returns(uint256) {\r\n        return amount_canWithdraw(msg.sender);\r\n    }\r\n\r\n    /**\r\n     * add stake token to staking pool\r\n     * @dev requires the token to be approved for transfer\r\n     * @dev we assume that (our) stake token is not malicious, so no special checks\r\n     * @param _amount of token to be staked\r\n     */\r\n    function _stake(uint256 _amount) internal returns (uint256) {\r\n        require(_amount > 0, \"stake amount must be > 0\");\r\n\r\n        uint48 current = toUint48(block.timestamp);\r\n\r\n        require(current >= startTimestamp, \"Staking period has not started yet\");\r\n        require(current < endTimestamp, \"Staking period has been ended\");\r\n        require(stakingToken.transferFrom(msg.sender, address(this), _amount), \"erc20 worked failed\");\r\n\r\n        Stake storage user = stakes[msg.sender];\r\n        if (user.user != msg.sender) {\r\n            stakers.push(msg.sender);\r\n            stakes[msg.sender].user = msg.sender;\r\n            stakes[msg.sender].isLocked = 1;\r\n        }\r\n\r\n        uint newPoint = user.point + ((current - user.lastCalculatedTimestamp) / 3600) * (user.amount / 1000000000000000000);\r\n        user.lastCalculatedTimestamp = current;\r\n        user.amount = toUint160(user.amount + _amount);\r\n        user.maxPoint = ((endTimestamp - startTimestamp) / 3600) * (user.amount / 1000000000000000000);\r\n        if (newPoint > user.maxPoint) {\r\n            user.point = user.maxPoint;\r\n        } else {\r\n            user.point = newPoint;\r\n        }\r\n\r\n        tokenTotalStaked += _amount;\r\n\r\n        emit Staked(msg.sender, _amount, toUint48(block.timestamp)); // = user.stakeTime\r\n        return _amount;\r\n    }\r\n\r\n     /**\r\n     * withdraw staked token, ...\r\n     * do not withdraw rewards token (it might not be worth the gas)\r\n     * @return amount of tokens sent to user's account\r\n     */\r\n    function _withdraw(uint256 _amount) internal returns (uint256) {\r\n        require(_amount > 0, \"withdraw amount < 0\");\r\n        Stake storage user = stakes[msg.sender]; // update rewards and return reference to user\r\n\r\n        require(_amount <= amount_canWithdraw_msgSender(), \"Can not withdraw more than you can\");\r\n\r\n        uint current = block.timestamp;\r\n\r\n        user.amount -= toUint160(_amount);\r\n        tokenTotalStaked -= _amount;\r\n        \r\n        if (current <= endTimestamp) {\r\n            user.maxPoint = ((endTimestamp - startTimestamp) / 3600) * (user.amount / 1000000000000000000);\r\n            if (user.point > user.maxPoint) {\r\n                user.point = user.maxPoint;\r\n            }\r\n        }\r\n        // using SafeERC20 for IERC20 => will revert in case of error\r\n        require(stakingToken.transfer(msg.sender, _amount), \"ERC20 worked failed\");\r\n\r\n        emit Withdraw(msg.sender, _amount, toUint48(block.timestamp)); // = user.stakeTime\r\n        return _amount;\r\n    }\r\n\r\n    function stake(uint256 _amount) external nonReentrant returns (uint256) {\r\n        return _stake(_amount);\r\n    }\r\n\r\n    function withdraw(uint256 _amount) external nonReentrant returns (uint256) {\r\n        return _withdraw(_amount);\r\n    }\r\n\r\n    function withdrawAll() external nonReentrant returns (uint256) {\r\n        return _withdraw(amount_canWithdraw_msgSender());\r\n    }\r\n\r\n     /**\r\n     * Do not accept accidently sent ETH :\r\n     * If neither a receive Ether nor a payable fallback function is present,\r\n     * the contract cannot receive Ether through regular transactions and throws an exception.\r\n     * https://docs.soliditylang.org/en/v0.8.7/contracts.html#receive-ether-function\r\n     */\r\n\r\n    /**\r\n     * @notice withdraw accidently sent ERC20 tokens\r\n     * @param _tokenAddress address of token to withdraw\r\n     */\r\n    function removeOtherERC20Tokens(address _tokenAddress) external onlyRole(DEFAULT_ADMIN_ROLE) {\r\n        require(_tokenAddress != address(stakingToken), \"can not withdraw staking token\");\r\n\r\n\r\n        ERC20 otherToken = ERC20(_tokenAddress);\r\n        uint256 balance = otherToken.balanceOf(_tokenAddress);\r\n\r\n        require(otherToken.transfer(msg.sender, balance), \"erc20 worked failed\");\r\n        emit ERC20TokensRemoved(_tokenAddress, msg.sender, balance);\r\n    }\r\n\r\n}\r\n",
  "sourcePath": "E:\\IDO-Flatform\\Fixed-IDO-contract\\contracts\\DreStake.sol",
  "compiler": {
    "name": "solc",
    "version": "0.8.11+commit.d7f03943.Emscripten.clang"
  },
  "schemaVersion": "3.4.4",
  "updatedAt": "2022-02-23T04:05:02.580Z",
  "devdoc": {
    "kind": "dev",
    "methods": {
      "getAllStakers()": {
        "returns": {
          "_0": "An address list of all stakers"
        }
      },
      "getPoint(address)": {
        "returns": {
          "_0": "Current accumulated point of staker"
        }
      },
      "getRoleAdmin(bytes32)": {
        "details": "Returns the admin role that controls `role`. See {grantRole} and {revokeRole}. To change a role's admin, use {_setRoleAdmin}."
      },
      "getUnlockTime()": {
        "details": "return unix epoch time when staked tokens will be unlockedreturn MAX_INT_UINT48 = 2**48-1 if user has no token stakedthis always allows an easy check with : require(block.timestamp > getUnlockTime(account));",
        "returns": {
          "_0": "unlockTime unix epoch time in seconds"
        }
      },
      "grantRole(bytes32,address)": {
        "details": "Grants `role` to `account`. If `account` had not been already granted `role`, emits a {RoleGranted} event. Requirements: - the caller must have ``role``'s admin role."
      },
      "hasRole(bytes32,address)": {
        "details": "Returns `true` if `account` has been granted `role`."
      },
      "removeOtherERC20Tokens(address)": {
        "params": {
          "_tokenAddress": "address of token to withdraw"
        }
      },
      "renounceRole(bytes32,address)": {
        "details": "Revokes `role` from the calling account. Roles are often managed via {grantRole} and {revokeRole}: this function's purpose is to provide a mechanism for accounts to lose their privileges if they are compromised (such as when a trusted device is misplaced). If the calling account had been revoked `role`, emits a {RoleRevoked} event. Requirements: - the caller must be `account`."
      },
      "revokeRole(bytes32,address)": {
        "details": "Revokes `role` from `account`. If `account` had been granted `role`, emits a {RoleRevoked} event. Requirements: - the caller must have ``role``'s admin role."
      },
      "setLockTimestamp(uint48)": {
        "params": {
          "_lockTime": "time in seconds"
        }
      },
      "supportsInterface(bytes4)": {
        "details": "See {IERC165-supportsInterface}."
      }
    },
    "version": 1
  },
  "userdoc": {
    "events": {
      "Staked(address,uint256,uint256)": {
        "notice": "Staked event is triggered whenever a user stakes tokens, address is indexed to make it filterable"
      }
    },
    "kind": "user",
    "methods": {
      "removeOtherERC20Tokens(address)": {
        "notice": "withdraw accidently sent ERC20 tokens"
      },
      "setLockTimestamp(uint48)": {
        "notice": "set time a user has to wait after calling unlock until staked token can be withdrawn"
      },
      "stakeAmount_msgSender()": {
        "notice": "msg.sender external view convenience functions ********************************"
      },
      "stakePoint(address)": {
        "notice": "External API functions"
      },
      "stakes(address)": {
        "notice": " stakes is used to keep track of the INDEX for the stakers in the stakes array"
      }
    },
    "notice": "Stakeable is a contract who is ment to be inherited by other contract that wants Staking capabilities",
    "version": 1
  }
}