{
  "contractName": "Pool",
  "abi": [
    {
      "inputs": [
        {
          "internalType": "address",
          "name": "tokenAddress",
          "type": "address"
        },
        {
          "internalType": "uint256",
          "name": "tokensforsale",
          "type": "uint256"
        },
        {
          "internalType": "uint256",
          "name": "tokenvalue",
          "type": "uint256"
        },
        {
          "internalType": "uint256",
          "name": "startTimestamp",
          "type": "uint256"
        },
        {
          "internalType": "uint256",
          "name": "endTimestamp",
          "type": "uint256"
        },
        {
          "internalType": "uint256",
          "name": "minimumAmount",
          "type": "uint256"
        },
        {
          "internalType": "address",
          "name": "onwer",
          "type": "address"
        },
        {
          "internalType": "address",
          "name": "feeTaker",
          "type": "address"
        },
        {
          "internalType": "uint8",
          "name": "feeAmount",
          "type": "uint8"
        }
      ],
      "stateMutability": "nonpayable",
      "type": "constructor"
    },
    {
      "anonymous": false,
      "inputs": [
        {
          "indexed": false,
          "internalType": "address",
          "name": "wallet",
          "type": "address"
        },
        {
          "indexed": false,
          "internalType": "uint256",
          "name": "maximumAmount",
          "type": "uint256"
        }
      ],
      "name": "AddToWhitelistEvent",
      "type": "event"
    },
    {
      "anonymous": false,
      "inputs": [
        {
          "indexed": false,
          "internalType": "string",
          "name": "attribute",
          "type": "string"
        },
        {
          "indexed": false,
          "internalType": "address",
          "name": "value",
          "type": "address"
        },
        {
          "indexed": false,
          "internalType": "address",
          "name": "signer",
          "type": "address"
        }
      ],
      "name": "ChangeInformationEvent",
      "type": "event"
    },
    {
      "anonymous": false,
      "inputs": [
        {
          "indexed": false,
          "internalType": "string",
          "name": "attribute",
          "type": "string"
        },
        {
          "indexed": false,
          "internalType": "uint256",
          "name": "value",
          "type": "uint256"
        },
        {
          "indexed": false,
          "internalType": "address",
          "name": "signer",
          "type": "address"
        }
      ],
      "name": "ChangeInformationEvent",
      "type": "event"
    },
    {
      "anonymous": false,
      "inputs": [
        {
          "indexed": true,
          "internalType": "address",
          "name": "previousOwner",
          "type": "address"
        },
        {
          "indexed": true,
          "internalType": "address",
          "name": "newOwner",
          "type": "address"
        }
      ],
      "name": "OwnershipTransferred",
      "type": "event"
    },
    {
      "anonymous": false,
      "inputs": [
        {
          "indexed": false,
          "internalType": "address",
          "name": "account",
          "type": "address"
        }
      ],
      "name": "Paused",
      "type": "event"
    },
    {
      "anonymous": false,
      "inputs": [
        {
          "indexed": false,
          "internalType": "address",
          "name": "purchaser",
          "type": "address"
        },
        {
          "indexed": false,
          "internalType": "uint256",
          "name": "tokensAmount",
          "type": "uint256"
        },
        {
          "indexed": false,
          "internalType": "uint256",
          "name": "timestamp",
          "type": "uint256"
        }
      ],
      "name": "PurchaseEvent",
      "type": "event"
    },
    {
      "anonymous": false,
      "inputs": [
        {
          "indexed": false,
          "internalType": "address",
          "name": "wallet",
          "type": "address"
        }
      ],
      "name": "RemoveFromWhitelistEvent",
      "type": "event"
    },
    {
      "anonymous": false,
      "inputs": [
        {
          "indexed": false,
          "internalType": "address",
          "name": "account",
          "type": "address"
        }
      ],
      "name": "Unpaused",
      "type": "event"
    },
    {
      "inputs": [],
      "name": "decimals",
      "outputs": [
        {
          "internalType": "uint8",
          "name": "",
          "type": "uint8"
        }
      ],
      "stateMutability": "view",
      "type": "function"
    },
    {
      "inputs": [],
      "name": "endDate",
      "outputs": [
        {
          "internalType": "uint256",
          "name": "",
          "type": "uint256"
        }
      ],
      "stateMutability": "view",
      "type": "function"
    },
    {
      "inputs": [],
      "name": "erc20",
      "outputs": [
        {
          "internalType": "contract ERC20",
          "name": "",
          "type": "address"
        }
      ],
      "stateMutability": "view",
      "type": "function"
    },
    {
      "inputs": [],
      "name": "feePercentage",
      "outputs": [
        {
          "internalType": "uint8",
          "name": "",
          "type": "uint8"
        }
      ],
      "stateMutability": "view",
      "type": "function"
    },
    {
      "inputs": [
        {
          "internalType": "address",
          "name": "wallet",
          "type": "address"
        }
      ],
      "name": "getIndividualMaximumAmount",
      "outputs": [
        {
          "internalType": "uint256",
          "name": "",
          "type": "uint256"
        }
      ],
      "stateMutability": "view",
      "type": "function"
    },
    {
      "inputs": [],
      "name": "individualMinimumAmount",
      "outputs": [
        {
          "internalType": "uint256",
          "name": "",
          "type": "uint256"
        }
      ],
      "stateMutability": "view",
      "type": "function"
    },
    {
      "inputs": [],
      "name": "isSaleFunded",
      "outputs": [
        {
          "internalType": "bool",
          "name": "",
          "type": "bool"
        }
      ],
      "stateMutability": "view",
      "type": "function"
    },
    {
      "inputs": [],
      "name": "isUnsoldTokensRedeemed",
      "outputs": [
        {
          "internalType": "bool",
          "name": "",
          "type": "bool"
        }
      ],
      "stateMutability": "view",
      "type": "function"
    },
    {
      "inputs": [
        {
          "internalType": "address",
          "name": "wallet",
          "type": "address"
        }
      ],
      "name": "isWhitelisted",
      "outputs": [
        {
          "internalType": "bool",
          "name": "",
          "type": "bool"
        }
      ],
      "stateMutability": "view",
      "type": "function"
    },
    {
      "inputs": [],
      "name": "owner",
      "outputs": [
        {
          "internalType": "address",
          "name": "",
          "type": "address"
        }
      ],
      "stateMutability": "view",
      "type": "function"
    },
    {
      "inputs": [],
      "name": "paused",
      "outputs": [
        {
          "internalType": "bool",
          "name": "",
          "type": "bool"
        }
      ],
      "stateMutability": "view",
      "type": "function"
    },
    {
      "inputs": [],
      "name": "renounceOwnership",
      "outputs": [],
      "stateMutability": "nonpayable",
      "type": "function"
    },
    {
      "inputs": [],
      "name": "signer",
      "outputs": [
        {
          "internalType": "address",
          "name": "",
          "type": "address"
        }
      ],
      "stateMutability": "view",
      "type": "function"
    },
    {
      "inputs": [],
      "name": "startDate",
      "outputs": [
        {
          "internalType": "uint256",
          "name": "",
          "type": "uint256"
        }
      ],
      "stateMutability": "view",
      "type": "function"
    },
    {
      "inputs": [],
      "name": "tokensAllocated",
      "outputs": [
        {
          "internalType": "uint256",
          "name": "",
          "type": "uint256"
        }
      ],
      "stateMutability": "view",
      "type": "function"
    },
    {
      "inputs": [],
      "name": "tokensForSale",
      "outputs": [
        {
          "internalType": "uint256",
          "name": "",
          "type": "uint256"
        }
      ],
      "stateMutability": "view",
      "type": "function"
    },
    {
      "inputs": [],
      "name": "tradeRatio",
      "outputs": [
        {
          "internalType": "uint256",
          "name": "",
          "type": "uint256"
        }
      ],
      "stateMutability": "view",
      "type": "function"
    },
    {
      "inputs": [
        {
          "internalType": "address",
          "name": "newOwner",
          "type": "address"
        }
      ],
      "name": "transferOwnership",
      "outputs": [],
      "stateMutability": "nonpayable",
      "type": "function"
    },
    {
      "inputs": [],
      "name": "whitelist",
      "outputs": [
        {
          "internalType": "address[]",
          "name": "",
          "type": "address[]"
        }
      ],
      "stateMutability": "view",
      "type": "function"
    },
    {
      "inputs": [],
      "name": "getInformation",
      "outputs": [
        {
          "internalType": "address",
          "name": "",
          "type": "address"
        },
        {
          "internalType": "uint8",
          "name": "",
          "type": "uint8"
        },
        {
          "internalType": "uint256",
          "name": "",
          "type": "uint256"
        },
        {
          "internalType": "uint256",
          "name": "",
          "type": "uint256"
        },
        {
          "internalType": "uint256",
          "name": "",
          "type": "uint256"
        },
        {
          "internalType": "uint256",
          "name": "",
          "type": "uint256"
        },
        {
          "internalType": "uint256",
          "name": "",
          "type": "uint256"
        },
        {
          "internalType": "uint256",
          "name": "",
          "type": "uint256"
        }
      ],
      "stateMutability": "view",
      "type": "function"
    },
    {
      "inputs": [
        {
          "internalType": "address",
          "name": "tokenAddress",
          "type": "address"
        }
      ],
      "name": "setErc20",
      "outputs": [],
      "stateMutability": "nonpayable",
      "type": "function"
    },
    {
      "inputs": [
        {
          "internalType": "uint256",
          "name": "tradeValue",
          "type": "uint256"
        }
      ],
      "name": "setTokenValue",
      "outputs": [],
      "stateMutability": "nonpayable",
      "type": "function"
    },
    {
      "inputs": [
        {
          "internalType": "uint256",
          "name": "_startdate",
          "type": "uint256"
        }
      ],
      "name": "setStartDate",
      "outputs": [],
      "stateMutability": "nonpayable",
      "type": "function"
    },
    {
      "inputs": [
        {
          "internalType": "uint256",
          "name": "_enddate",
          "type": "uint256"
        }
      ],
      "name": "setEndDate",
      "outputs": [],
      "stateMutability": "nonpayable",
      "type": "function"
    },
    {
      "inputs": [
        {
          "internalType": "uint256",
          "name": "_tokensforsale",
          "type": "uint256"
        }
      ],
      "name": "setTokensForSale",
      "outputs": [],
      "stateMutability": "nonpayable",
      "type": "function"
    },
    {
      "inputs": [],
      "name": "isPreStart",
      "outputs": [
        {
          "internalType": "bool",
          "name": "",
          "type": "bool"
        }
      ],
      "stateMutability": "view",
      "type": "function"
    },
    {
      "inputs": [],
      "name": "isOpen",
      "outputs": [
        {
          "internalType": "bool",
          "name": "",
          "type": "bool"
        }
      ],
      "stateMutability": "view",
      "type": "function"
    },
    {
      "inputs": [],
      "name": "hasFinalized",
      "outputs": [
        {
          "internalType": "bool",
          "name": "",
          "type": "bool"
        }
      ],
      "stateMutability": "view",
      "type": "function"
    },
    {
      "inputs": [
        {
          "internalType": "uint256",
          "name": "amount",
          "type": "uint256"
        }
      ],
      "name": "fund",
      "outputs": [],
      "stateMutability": "nonpayable",
      "type": "function"
    },
    {
      "inputs": [
        {
          "internalType": "address",
          "name": "newSigner",
          "type": "address"
        }
      ],
      "name": "changeSigner",
      "outputs": [],
      "stateMutability": "nonpayable",
      "type": "function"
    },
    {
      "inputs": [
        {
          "internalType": "address",
          "name": "wallet",
          "type": "address"
        },
        {
          "internalType": "uint256",
          "name": "amount",
          "type": "uint256"
        }
      ],
      "name": "addToWhitelist",
      "outputs": [],
      "stateMutability": "nonpayable",
      "type": "function"
    },
    {
      "inputs": [
        {
          "internalType": "address[]",
          "name": "wallets",
          "type": "address[]"
        },
        {
          "internalType": "uint256[]",
          "name": "amounts",
          "type": "uint256[]"
        }
      ],
      "name": "addToWhitelist",
      "outputs": [],
      "stateMutability": "nonpayable",
      "type": "function"
    },
    {
      "inputs": [
        {
          "internalType": "address",
          "name": "wallet",
          "type": "address"
        }
      ],
      "name": "removeFromWhitelist",
      "outputs": [],
      "stateMutability": "nonpayable",
      "type": "function"
    },
    {
      "inputs": [],
      "name": "pauseContract",
      "outputs": [],
      "stateMutability": "nonpayable",
      "type": "function"
    },
    {
      "inputs": [],
      "name": "unpauseContract",
      "outputs": [],
      "stateMutability": "nonpayable",
      "type": "function"
    },
    {
      "inputs": [],
      "name": "tokensLeft",
      "outputs": [
        {
          "internalType": "uint256",
          "name": "",
          "type": "uint256"
        }
      ],
      "stateMutability": "view",
      "type": "function"
    },
    {
      "inputs": [
        {
          "internalType": "uint256",
          "name": "amount",
          "type": "uint256"
        }
      ],
      "name": "getCostFromTokens",
      "outputs": [
        {
          "internalType": "uint256",
          "name": "",
          "type": "uint256"
        }
      ],
      "stateMutability": "view",
      "type": "function"
    },
    {
      "inputs": [
        {
          "internalType": "uint256",
          "name": "amount",
          "type": "uint256"
        }
      ],
      "name": "swap",
      "outputs": [],
      "stateMutability": "payable",
      "type": "function"
    },
    {
      "inputs": [
        {
          "internalType": "uint256",
          "name": "id",
          "type": "uint256"
        }
      ],
      "name": "getPurchase",
      "outputs": [
        {
          "internalType": "uint256",
          "name": "",
          "type": "uint256"
        },
        {
          "internalType": "address",
          "name": "",
          "type": "address"
        },
        {
          "internalType": "uint256",
          "name": "",
          "type": "uint256"
        },
        {
          "internalType": "uint256",
          "name": "",
          "type": "uint256"
        },
        {
          "internalType": "bool",
          "name": "",
          "type": "bool"
        },
        {
          "internalType": "bool",
          "name": "",
          "type": "bool"
        }
      ],
      "stateMutability": "view",
      "type": "function"
    },
    {
      "inputs": [],
      "name": "getMyPurchases",
      "outputs": [
        {
          "internalType": "uint256[]",
          "name": "",
          "type": "uint256[]"
        }
      ],
      "stateMutability": "view",
      "type": "function"
    },
    {
      "inputs": [
        {
          "internalType": "uint256",
          "name": "purchaseId",
          "type": "uint256"
        }
      ],
      "name": "redeemTokens",
      "outputs": [],
      "stateMutability": "nonpayable",
      "type": "function"
    },
    {
      "inputs": [],
      "name": "redeemTokens",
      "outputs": [],
      "stateMutability": "nonpayable",
      "type": "function"
    },
    {
      "inputs": [],
      "name": "redeemFunds",
      "outputs": [],
      "stateMutability": "nonpayable",
      "type": "function"
    },
    {
      "inputs": [
        {
          "internalType": "uint256",
          "name": "purchaseId",
          "type": "uint256"
        }
      ],
      "name": "redeemFunds",
      "outputs": [],
      "stateMutability": "nonpayable",
      "type": "function"
    },
    {
      "inputs": [],
      "name": "withdrawUnsoldTokens",
      "outputs": [],
      "stateMutability": "nonpayable",
      "type": "function"
    },
    {
      "inputs": [],
      "name": "withdrawFunds",
      "outputs": [],
      "stateMutability": "nonpayable",
      "type": "function"
    }
  ],
  "bytecode": "0x608060405260016005556008805460a060020a62ff00ff02191690556000600c55600e805460a060020a60ff021916740100000000000000000000000000000000000000001790553480156200005457600080fd5b5060405162004091380380620040918339810160408190526200007791620007e1565b6003849055620000a262000093640100000000620005fd810204565b64010000000062000601810204565b6004805460a060020a60ff02191690558762000145576040517f08c379a000000000000000000000000000000000000000000000000000000000815260206004820152602760248201527f546f6b656e73466f7253616c65206d757374206265206772656174657220746860448201527f616e207a65726f0000000000000000000000000000000000000000000000000060648201526084015b60405180910390fd5b60008711620001d6576040517f08c379a0000000000000000000000000000000000000000000000000000000008152602060048201526024808201527f746f6b656e56616c7565206d7573742062652067726561746572207468616e2060448201527f7a65726f0000000000000000000000000000000000000000000000000000000060648201526084016200013c565b42861162000241576040517f08c379a000000000000000000000000000000000000000000000000000000000815260206004820152601f60248201527f737461727444617465206d75737420626520696e20746865206675747572650060448201526064016200013c565b858511620002d2576040517f08c379a000000000000000000000000000000000000000000000000000000000815260206004820152602360248201527f656e6444617465206d7573742067726561746572207468616e2073746172744460448201527f617465000000000000000000000000000000000000000000000000000000000060648201526084016200013c565b87841062000363576040517f08c379a000000000000000000000000000000000000000000000000000000000815260206004820152603260248201527f4d696e696d756d416d6f756e74206d75737420626520736d616c6c657220746860448201527f616e20746f6b656e7320666f722073616c65000000000000000000000000000060648201526084016200013c565b600e5460ff740100000000000000000000000000000000000000009091048116908216101562000415576040517f08c379a0000000000000000000000000000000000000000000000000000000008152602060048201526024808201527f46656550657263656e74616765206d757374206265206772656174657220746860448201527f616e20300000000000000000000000000000000000000000000000000000000060648201526084016200013c565b60648160ff1610620004aa576040517f08c379a000000000000000000000000000000000000000000000000000000000815260206004820152602660248201527f46656550657263656e74616765206d75737420626520736d616c6c657220746860448201527f616e20313030000000000000000000000000000000000000000000000000000060648201526084016200013c565b60088054600160a060020a031916600160a060020a038b16908117909155604080517f313ce567000000000000000000000000000000000000000000000000000000008152905163313ce567916004808201926020929091908290030181865afa1580156200051d573d6000803e3d6000fd5b505050506040513d601f19601f820116820180604052508101906200054391906200086f565b6008805460ff92831675010000000000000000000000000000000000000000000260a860020a60ff02199091161790556009889055600a879055600b869055600d899055600e80549183167401000000000000000000000000000000000000000002600160a860020a0319909216600160a060020a03851617919091179055620005db83640100000000620026366200065382021704565b5050600f8054600160a060020a03191633179055506200089495505050505050565b3390565b60048054600160a060020a03838116600160a060020a0319831681179093556040519116919082907f8be0079c531659141344cd1fd0a4f28419497f9722a3daafe3b4186f6b6457e090600090a35050565b62000666640100000000620005fd810204565b600160a060020a031662000682640100000000620007a3810204565b600160a060020a031614620006f4576040517f08c379a000000000000000000000000000000000000000000000000000000000815260206004820181905260248201527f4f776e61626c653a2063616c6c6572206973206e6f7420746865206f776e657260448201526064016200013c565b600160a060020a0381166200078c576040517f08c379a000000000000000000000000000000000000000000000000000000000815260206004820152602660248201527f4f776e61626c653a206e6577206f776e657220697320746865207a65726f206160448201527f646472657373000000000000000000000000000000000000000000000000000060648201526084016200013c565b620007a08164010000000062000601810204565b50565b600454600160a060020a031690565b8051600160a060020a0381168114620007ca57600080fd5b919050565b805160ff81168114620007ca57600080fd5b60008060008060008060008060006101208a8c0312156200080157600080fd5b6200080c8a620007b2565b985060208a0151975060408a0151965060608a0151955060808a0151945060a08a015193506200083f60c08b01620007b2565b92506200084f60e08b01620007b2565b9150620008606101008b01620007cf565b90509295985092959850929598565b6000602082840312156200088257600080fd5b6200088d82620007cf565b9392505050565b6137ed80620008a46000396000f3fe6080604052600436106102815760003560e060020a9004806382d95df511610153578063bc07b779116100c5578063e9a9c50c1161007e578063e9a9c50c146107c1578063ee9b80a4146107d6578063eea62217146107f6578063f2fde38b14610816578063f8d5054214610836578063fdc320f11461085657600080fd5b8063bc07b779146106d8578063c0da1e68146106f8578063c24a0f8b14610754578063c8bdbfb61461076a578063ca1d209d1461077f578063e4a711831461079f57600080fd5b8063a001ecdd11610117578063a001ecdd1461062d578063a2bf69391461064e578063a6e158f81461066e578063aad2b7231461068e578063b31f8f93146106ae578063b33712c5146106c357600080fd5b806382d95df51461059a5780638ab1d681146105ba5780638da5cb5b146105da57806393e59dc1146105f857806394b918de1461061a57600080fd5b8063313ce567116101f7578063439766ce116101b0578063439766ce1461050657806347535d7b1461051b5780635c975abb14610530578063715018a61461054f578063755e3e2814610564578063785e9e861461057a57600080fd5b8063313ce567146103fb5780633742a9f7146104405780633784f000146104995780633af32abf146104b95780633fdd6762146104d95780634089aa9a146104ef57600080fd5b8063214405fc11610249578063214405fc1461034a578063216355ec1461036c578063238ac9331461038157806324600fc3146103b95780632e154107146103ce5780632ebb5c1e146103e457600080fd5b806304d1001f146102865780630b97bc86146102cf57806312aef8c3146102f3578063161a7b2a1461030957806318bfff6a1461032a575b600080fd5b34801561029257600080fd5b506008546102ba90760100000000000000000000000000000000000000000000900460ff1681565b60405190151581526020015b60405180910390f35b3480156102db57600080fd5b506102e5600a5481565b6040519081526020016102c6565b3480156102ff57600080fd5b506102e5600d5481565b34801561031557600080fd5b506008546102ba9060a060020a900460ff1681565b34801561033657600080fd5b506102e5610345366004612fdd565b610876565b34801561035657600080fd5b5061036a610365366004613012565b610917565b005b34801561037857600080fd5b5061036a61099b565b34801561038d57600080fd5b50600f546103a190600160a060020a031681565b604051600160a060020a0390911681526020016102c6565b3480156103c557600080fd5b5061036a610b26565b3480156103da57600080fd5b506102e560035481565b3480156103f057600080fd5b50600a5442106102ba565b34801561040757600080fd5b5060085461042e907501000000000000000000000000000000000000000000900460ff1681565b60405160ff90911681526020016102c6565b34801561044c57600080fd5b5061046061045b366004612fdd565b610c2c565b60408051968752600160a060020a03909516602087015293850192909252606084015215156080830152151560a082015260c0016102c6565b3480156104a557600080fd5b5061036a6104b4366004612fdd565b610cca565b3480156104c557600080fd5b506102ba6104d436600461303c565b610e0b565b3480156104e557600080fd5b506102e560095481565b3480156104fb57600080fd5b50600b5442116102ba565b34801561051257600080fd5b5061036a610e38565b34801561052757600080fd5b506102ba610e96565b34801561053c57600080fd5b5060045460a060020a900460ff166102ba565b34801561055b57600080fd5b5061036a610eb7565b34801561057057600080fd5b506102e5600c5481565b34801561058657600080fd5b506008546103a190600160a060020a031681565b3480156105a657600080fd5b5061036a6105b5366004612fdd565b610eee565b3480156105c657600080fd5b5061036a6105d536600461303c565b61107a565b3480156105e657600080fd5b50600454600160a060020a03166103a1565b34801561060457600080fd5b5061060d6110d4565b6040516102c69190613057565b61036a610628366004612fdd565b6111a2565b34801561063957600080fd5b50600e5461042e9060a060020a900460ff1681565b34801561065a57600080fd5b5061036a610669366004612fdd565b6115e6565b34801561067a57600080fd5b5061036a610689366004612fdd565b61171e565b34801561069a57600080fd5b5061036a6106a936600461303c565b61194e565b3480156106ba57600080fd5b506102e56119c1565b3480156106cf57600080fd5b5061036a6119d3565b3480156106e457600080fd5b5061036a6106f3366004612fdd565b611a2f565b34801561070457600080fd5b5061070d611bde565b60408051600160a060020a03909916895260ff9097166020890152958701949094526060860192909252608085015260a084015260c083015260e0820152610100016102c6565b34801561076057600080fd5b506102e5600b5481565b34801561077657600080fd5b5061036a611c42565b34801561078b57600080fd5b5061036a61079a366004612fdd565b611e07565b3480156107ab57600080fd5b506107b46120f9565b6040516102c691906130a4565b3480156107cd57600080fd5b5061036a61215a565b3480156107e257600080fd5b5061036a6107f136600461303c565b612352565b34801561080257600080fd5b5061036a610811366004612fdd565b612500565b34801561082257600080fd5b5061036a61083136600461303c565b612636565b34801561084257600080fd5b5061036a610851366004613127565b6126eb565b34801561086257600080fd5b506102e561087136600461303c565b6127a9565b60008082116108cf5760405160e560020a62461bcd02815260206004820152601760248201527f546f6b656e416d6f756e74206d757374206265203e203000000000000000000060448201526064015b60405180910390fd5b600854610911906108fd907501000000000000000000000000000000000000000000900460ff16600a613293565b60095461090b90859061281e565b90612831565b92915050565b600f54600160a060020a031633146109445760405160e560020a62461bcd0281526004016108c6906132a2565b600a5442106109685760405160e560020a62461bcd0281526004016108c6906132d9565b600d5481111561098d5760405160e560020a62461bcd0281526004016108c690613310565b610997828261283d565b5050565b600b5442116109bf5760405160e560020a62461bcd0281526004016108c69061336d565b60045460a060020a900460ff166109eb5760405160e560020a62461bcd0281526004016108c6906133a4565b336109f581610e0b565b610a145760405160e560020a62461bcd0281526004016108c6906133db565b336000908152600760205260408120905b8154811015610b2157610a53828281548110610a4357610a43613438565b9060005260206000200154612ae6565b610b0f57600160066000848481548110610a6f57610a6f613438565b9060005260206000200154815260200190815260200160002060040160016101000a81548160ff02191690831515021790555033600160a060020a03166108fc60066000858581548110610ac557610ac5613438565b90600052602060002001548152602001908152602001600020600301549081150290604051600060405180830381858888f19350505050158015610b0d573d6000803e3d6000fd5b505b80610b1981613451565b915050610a25565b505050565b600454600160a060020a03163314610b535760405160e560020a62461bcd0281526004016108c69061346c565b600b544211610b775760405160e560020a62461bcd0281526004016108c69061336d565b60045460a060020a900460ff1615610ba45760405160e560020a62461bcd0281526004016108c6906134a1565b600e54600160a060020a038116906108fc90610bd39060649061090b9030319060a060020a900460ff1661281e565b6040518115909202916000818181858888f19350505050158015610bfb573d6000803e3d6000fd5b506040513390303180156108fc02916000818181858888f19350505050158015610c29573d6000803e3d6000fd5b50565b6000806000806000808660008111610c595760405160e560020a62461bcd0281526004016108c6906134d8565b6005548110610c7d5760405160e560020a62461bcd0281526004016108c69061350f565b50505060009485525050600660205250506040902080546001820154600383015460028401546004909401549294600160a060020a03909216939092909160ff8083169261010090041690565b600454600160a060020a03163314610cf75760405160e560020a62461bcd0281526004016108c69061346c565b62093a80600a54610d089190613546565b4210610d295760405160e560020a62461bcd0281526004016108c69061355d565b600a548111610da35760405160e560020a62461bcd02815260206004820152602360248201527f656e6444617465206d7573742067726561746572207468616e2073746172744460448201527f617465000000000000000000000000000000000000000000000000000000000060648201526084016108c6565b600b8190556040805160608082526007908201527f456e64446174650000000000000000000000000000000000000000000000000060808201526020810183905233918101919091526000805160206137988339815191529060a0015b60405180910390a150565b600160a060020a03811660009081526020819052604081205415610e30576001610911565b600092915050565b600454600160a060020a03163314610e655760405160e560020a62461bcd0281526004016108c69061346c565b610e6d610e96565b610e8c5760405160e560020a62461bcd0281526004016108c6906135e0565b610e94612b14565b565b6000610ea3600a54421090565b158015610eb25750600b544211155b905090565b600454600160a060020a03163314610ee45760405160e560020a62461bcd0281526004016108c69061346c565b610e946000612baa565b600454600160a060020a03163314610f1b5760405160e560020a62461bcd0281526004016108c69061346c565b62093a80600a54610f2c9190613546565b4210610f4d5760405160e560020a62461bcd0281526004016108c69061355d565b428111610f9f5760405160e560020a62461bcd02815260206004820152601f60248201527f737461727444617465206d75737420626520696e20746865206675747572650060448201526064016108c6565b600b5481106110195760405160e560020a62461bcd02815260206004820152602660248201527f737461727444617465206d75737420626520736d616c6c6572207468616e206560448201527f6e6444617465000000000000000000000000000000000000000000000000000060648201526084016108c6565b600a8190556040805160608082526009908201527f537461727444617465000000000000000000000000000000000000000000000060808201526020810183905233918101919091526000805160206137988339815191529060a001610e00565b600f54600160a060020a031633146110a75760405160e560020a62461bcd0281526004016108c6906132a2565b600a5442106110cb5760405160e560020a62461bcd0281526004016108c6906132d9565b610c2981612bfc565b60015460609060009067ffffffffffffffff8111156110f5576110f5613617565b60405190808252806020026020018201604052801561111e578160200160208202803683370190505b50905060005b60015481101561119c576001818154811061114157611141613438565b60009182526020909120600290910201548251600160a060020a039091169083908390811061117257611172613438565b600160a060020a03909216602092830291909101909101528061119481613451565b915050611124565b50919050565b6111aa610e96565b6111c95760405160e560020a62461bcd0281526004016108c6906135e0565b336111d381610e0b565b6111f25760405160e560020a62461bcd0281526004016108c6906133db565b60045460a060020a900460ff161561121f5760405160e560020a62461bcd0281526004016108c6906134a1565b60085460a060020a900460ff1661127b5760405160e560020a62461bcd02815260206004820152601060248201527f48617320746f2062652066756e6465640000000000000000000000000000000060448201526064016108c6565b600082116112ce5760405160e560020a62461bcd02815260206004820152601660248201527f53776170416d6f756e74206d757374206265203e20300000000000000000000060448201526064016108c6565b60006112d9336127a9565b905060006112e633612cfa565b6003549091506112f68286612db2565b101561136d5760405160e560020a62461bcd02815260206004820152603160248201527f5377617020616d6f756e74206d757374206174206c6561737420696e6469766960448201527f6475616c4d696e696d756d416d6f756e7400000000000000000000000000000060648201526084016108c6565b816113788286612db2565b11156113ef5760405160e560020a62461bcd02815260206004820152602c60248201527f5377617020616d6f756e7420686173206f76657220696e646976696475616c4d60448201527f6178696d756d416d6f756e74000000000000000000000000000000000000000060648201526084016108c6565b6113f76119c1565b8411156114495760405160e560020a62461bcd02815260206004820152601d60248201527f5377617020616d6f756e7420686173206f76657220746865207265737400000060448201526064016108c6565b61145284610876565b3410156114a45760405160e560020a62461bcd02815260206004820152601f60248201527f506c656173652073656e6420656e6f7567682066756e6420746f20737761700060448201526064016108c6565b6040805160c08101825285815233602080830182815242848601908152346060860190815260006080870181815260a08801828152600580548452600688528a84208a518155965160018089018054600160a060020a031916600160a060020a03909316929092179091559551600288015593516003870155905160049095018054915161ffff1990921695151561ff001916959095176101009115159190910217909355938252600783529481209254835495860184559281522090920191909155600c546115749086612db2565b600c55600554611585906001612db2565b60055560208181015182516040808501518151600160a060020a039094168452938301919091528101919091527fa30e240d2c105a13336386b3e6f119d88730afc24c7127217034dd707b809c039060600160405180910390a15050505050565b600454600160a060020a031633146116135760405160e560020a62461bcd0281526004016108c69061346c565b62093a80600a546116249190613546565b42106116455760405160e560020a62461bcd0281526004016108c69061355d565b600081116116bd5760405160e560020a62461bcd028152602060048201526024808201527f746f6b656e56616c7565206d7573742062652067726561746572207468616e2060448201527f7a65726f0000000000000000000000000000000000000000000000000000000060648201526084016108c6565b6009819055604080516060808252600a908201527f546f6b656e56616c75650000000000000000000000000000000000000000000060808201526020810183905233918101919091526000805160206137988339815191529060a001610e00565b600b5442116117425760405160e560020a62461bcd0281526004016108c69061336d565b60045460a060020a900460ff161561176f5760405160e560020a62461bcd0281526004016108c6906134a1565b3361177981610e0b565b6117985760405160e560020a62461bcd0281526004016108c6906133db565b81600081116117bc5760405160e560020a62461bcd0281526004016108c6906134d8565b60055481106117e05760405160e560020a62461bcd0281526004016108c69061350f565b6000838152600660205260409020600101548390600160a060020a0316331461181e5760405160e560020a62461bcd0281526004016108c690613630565b8361182881612ae6565b156118785760405160e560020a62461bcd02815260206004820152601960248201527f507572636861736520686173206265656e2068616e646c65640000000000000060448201526064016108c6565b600085815260066020526040908190206004808201805460ff19166001179055600854915492517fa9059cbb00000000000000000000000000000000000000000000000000000000815233918101919091526024810192909252600160a060020a03169063a9059cbb906044016020604051808303816000875af1158015611904573d6000803e3d6000fd5b505050506040513d601f19601f82011682018060405250810190611928919061368d565b6119475760405160e560020a62461bcd0281526004016108c6906136af565b5050505050565b600f54600160a060020a0316331461197b5760405160e560020a62461bcd0281526004016108c6906132a2565b600a54421061199f5760405160e560020a62461bcd0281526004016108c6906132d9565b600f8054600160a060020a031916600160a060020a0392909216919091179055565b6000600c54600d54610eb29190613546565b600454600160a060020a03163314611a005760405160e560020a62461bcd0281526004016108c69061346c565b611a08610e96565b611a275760405160e560020a62461bcd0281526004016108c6906135e0565b610e94612dbe565b600b544211611a535760405160e560020a62461bcd0281526004016108c69061336d565b60045460a060020a900460ff16611a7f5760405160e560020a62461bcd0281526004016108c6906133a4565b33611a8981610e0b565b611aa85760405160e560020a62461bcd0281526004016108c6906133db565b8160008111611acc5760405160e560020a62461bcd0281526004016108c6906134d8565b6005548110611af05760405160e560020a62461bcd0281526004016108c69061350f565b6000838152600660205260409020600101548390600160a060020a03163314611b2e5760405160e560020a62461bcd0281526004016108c690613630565b83611b3881612ae6565b15611b885760405160e560020a62461bcd02815260206004820152601960248201527f507572636861736520686173206265656e2068616e646c65640000000000000060448201526064016108c6565b60008581526006602052604080822060048101805461ff001916610100179055600301549051339282156108fc02929190818181858888f19350505050158015611bd6573d6000803e3d6000fd5b505050505050565b600080600080600080600080600860009054906101000a9004600160a060020a0316600860159054906101000a900460ff16600954600a54600b54600c54600d54611c2a600d54610876565b969f959e50939c50919a509850965094509092509050565b600454600160a060020a03163314611c6f5760405160e560020a62461bcd0281526004016108c69061346c565b600b544211611c935760405160e560020a62461bcd0281526004016108c69061336d565b600854760100000000000000000000000000000000000000000000900460ff1615611d295760405160e560020a62461bcd02815260206004820152602a60248201527f4f776e65722068617320616c7265616479207769746864726177656420756e7360448201527f6f6c6420746f6b656e730000000000000000000000000000000000000000000060648201526084016108c6565b6008805476ff0000000000000000000000000000000000000000000019811676010000000000000000000000000000000000000000000017909155600160a060020a031663a9059cbb33611d7b6119c1565b60405160e060020a63ffffffff8516028152600160a060020a03909216600483015260248201526044016020604051808303816000875af1158015611dc4573d6000803e3d6000fd5b505050506040513d601f19601f82011682018060405250810190611de8919061368d565b610e945760405160e560020a62461bcd0281526004016108c6906136af565b600454600160a060020a03163314611e345760405160e560020a62461bcd0281526004016108c69061346c565b600a544210611e585760405160e560020a62461bcd0281526004016108c6906132d9565b600d546008546040517f70a082310000000000000000000000000000000000000000000000000000000081523060048201528391600160a060020a0316906370a0823190602401602060405180830381865afa158015611ebc573d6000803e3d6000fd5b505050506040513d601f19601f82011682018060405250810190611ee091906136e6565b611eea91906136ff565b1115611f3b5760405160e560020a62461bcd02815260206004820152601f60248201527f546f6b656e416d6f756e74206973206d6f7265207468616e20656e6f7567680060448201526064016108c6565b6008546040517f23b872dd00000000000000000000000000000000000000000000000000000000815233600482015230602482015260448101839052600160a060020a03909116906323b872dd906064016020604051808303816000875af1158015611fab573d6000803e3d6000fd5b505050506040513d601f19601f82011682018060405250810190611fcf919061368d565b6120445760405160e560020a62461bcd02815260206004820152603c60248201527f536f6d657468696e672077656e742077726f6e67207768656e206368616e676960448201527f6e6720746f6b656e732066726f6d206f776e657220746f20706f6f6c0000000060648201526084016108c6565b600d546008546040517f70a08231000000000000000000000000000000000000000000000000000000008152306004820152600160a060020a03909116906370a0823190602401602060405180830381865afa1580156120a8573d6000803e3d6000fd5b505050506040513d601f19601f820116820180604052508101906120cc91906136e6565b1415610c29576008805474ff0000000000000000000000000000000000000000191660a060020a17905550565b3360009081526007602090815260409182902080548351818402810184019094528084526060939283018282801561215057602002820191906000526020600020905b81548152602001906001019080831161213c575b5050505050905090565b600b54421161217e5760405160e560020a62461bcd0281526004016108c69061336d565b60045460a060020a900460ff16156121ab5760405160e560020a62461bcd0281526004016108c6906134a1565b336121b581610e0b565b6121d45760405160e560020a62461bcd0281526004016108c6906133db565b336000908152600760205260408120905b8154811015610b2157612203828281548110610a4357610a43613438565b6123405760016006600084848154811061221f5761221f613438565b9060005260206000200154815260200190815260200160002060040160006101000a81548160ff021916908315150217905550600860009054906101000a9004600160a060020a0316600160a060020a031663a9059cbb336006600086868154811061228d5761228d613438565b90600052602060002001548152602001908152602001600020600001546040518363ffffffff1660e060020a0281526004016122de929190600160a060020a03929092168252602082015260400190565b6020604051808303816000875af11580156122fd573d6000803e3d6000fd5b505050506040513d601f19601f82011682018060405250810190612321919061368d565b6123405760405160e560020a62461bcd0281526004016108c6906136af565b8061234a81613451565b9150506121e5565b600454600160a060020a0316331461237f5760405160e560020a62461bcd0281526004016108c69061346c565b62093a80600a546123909190613546565b42106123b15760405160e560020a62461bcd0281526004016108c69061355d565b60088054600160a060020a031916600160a060020a038316908117909155604080517f313ce567000000000000000000000000000000000000000000000000000000008152905163313ce567916004808201926020929091908290030181865afa158015612423573d6000803e3d6000fd5b505050506040513d601f19601f820116820180604052508101906124479190613717565b6008805460ff9290921675010000000000000000000000000000000000000000000275ff000000000000000000000000000000000000000000199092169190911790556040805160608082526005908201527f45524332300000000000000000000000000000000000000000000000000000006080820152600160a060020a038316602082015233918101919091527fbb5a4becaab7eddf98ff25ad714303775ae97d2c45ffd21777c6dbac757d1bc29060a001610e00565b600454600160a060020a0316331461252d5760405160e560020a62461bcd0281526004016108c69061346c565b62093a80600a5461253e9190613546565b421061255f5760405160e560020a62461bcd0281526004016108c69061355d565b600081116125d85760405160e560020a62461bcd02815260206004820152602760248201527f546f6b656e73466f7253616c65206d757374206265206772656174657220746860448201527f616e207a65726f0000000000000000000000000000000000000000000000000060648201526084016108c6565b600d8181556040805160608082528101929092527f546f6b656e73466f7253616c650000000000000000000000000000000000000060808301526020820183905233908201526000805160206137988339815191529060a001610e00565b600454600160a060020a031633146126635760405160e560020a62461bcd0281526004016108c69061346c565b600160a060020a0381166126e25760405160e560020a62461bcd02815260206004820152602660248201527f4f776e61626c653a206e6577206f776e657220697320746865207a65726f206160448201527f646472657373000000000000000000000000000000000000000000000000000060648201526084016108c6565b610c2981612baa565b600f54600160a060020a031633146127185760405160e560020a62461bcd0281526004016108c6906132a2565b600a54421061273c5760405160e560020a62461bcd0281526004016108c6906132d9565b60005b8381101561279657600d5483838381811061275c5761275c613438565b9050602002013511156127845760405160e560020a62461bcd0281526004016108c690613310565b8061278e81613451565b91505061273f565b506127a384848484612e2f565b50505050565b600160a060020a0381166000908152602081905260408120546127ce57506000919050565b600160a060020a0382166000908152602081905260409020546001906127f5908290613546565b8154811061280557612805613438565b9060005260206000209060020201600101549050919050565b600061282a828461373a565b9392505050565b600061282a8284613759565b61284682610e0b565b156128bc5760405160e560020a62461bcd02815260206004820152602560248201527f416464726573732068617320616c7265616479206265656e20696e207768697460448201527f656c69737400000000000000000000000000000000000000000000000000000060648201526084016108c6565b6003548110156129115760405160e560020a62461bcd02815260206004820152601d60248201527f4d6178416d6f756e74206d757374206265203e206d696e416d6f756e7400000060448201526064016108c6565b60408051808201909152600160a060020a03831681526020810182905260025415612a0c57600280546000919061294a90600190613546565b8154811061295a5761295a613438565b90600052602060002001549050816001828154811061297b5761297b613438565b6000918252602091829020835160029283029091018054600160a060020a031916600160a060020a0390921691909117815592909101516001909201919091558054806129ca576129ca61377e565b600190038181906000526020600020016000905590558060016129ed91906136ff565b600160a060020a03851660009081526020819052604090205550612a9e565b600180548082018255600082815283517fb10e2d527612073b26eecdfd717e6a320cf44b4afac2b0732d9fcbe2b7fa0cf660029093029283018054600160a060020a031916600160a060020a039283161790556020808601517fb10e2d527612073b26eecdfd717e6a320cf44b4afac2b0732d9fcbe2b7fa0cf790940193909355925492861681529081905260409020555b60408051600160a060020a0385168152602081018490527fdbc3d7b5b02382b8ef4cbc5c4638d41a227ed075bf781fd6f5eccd78956e745091015b60405180910390a1505050565b6000818152600660205260408120600481015460ff168061282a575060040154610100900460ff1692915050565b60045460a060020a900460ff1615612b415760405160e560020a62461bcd0281526004016108c6906134a1565b6004805474ff0000000000000000000000000000000000000000191660a060020a1790557f62e78cea01bee320cd4e420270b5ea74000d11b0c9f74754ebdbfc544b05a258612b8d3390565b604051600160a060020a03909116815260200160405180910390a1565b60048054600160a060020a03838116600160a060020a0319831681179093556040519116919082907f8be0079c531659141344cd1fd0a4f28419497f9722a3daafe3b4186f6b6457e090600090a35050565b80612c0681610e0b565b612c255760405160e560020a62461bcd0281526004016108c6906133db565b600160a060020a038216600090815260208190526040812054612c4a90600190613546565b905060018181548110612c5f57612c5f613438565b600091825260208083206002928302018054600160a060020a03191681556001908101849055600160a060020a038716808552848352604080862086905584549283018555939094527f405787fa12a823e0f2b7631cc41b3ba8828b3321ca811111fa75cd3aa3bb5ace0184905590519182527f6dbfaeb0371371c7351c34720516870acd30869231c2de2578edb65265e46a4a9101612ad9565b600081612d0681610e0b565b612d255760405160e560020a62461bcd0281526004016108c6906133db565b600160a060020a038316600090815260076020526040812090805b8254811015612da957600060066000858481548110612d6157612d61613438565b906000526020600020015481526020019081526020016000209050612d93816000015484612db290919063ffffffff16565b9250508080612da190613451565b915050612d40565b50949350505050565b600061282a82846136ff565b60045460a060020a900460ff16612dea5760405160e560020a62461bcd0281526004016108c6906133a4565b6004805474ff0000000000000000000000000000000000000000191690557f5db9ee0a495bf2e6ff9c91a7834c1ba4fdd244a5e8aa4e537bd38aeae4b073aa33612b8d565b60005b83811015612eec57612e64858583818110612e4f57612e4f613438565b90506020020160208101906104d4919061303c565b15612eda5760405160e560020a62461bcd02815260206004820152602960248201527f4f6e6520616464726573732068617320616c7265616479206265656e20696e2060448201527f77686974656c697374000000000000000000000000000000000000000000000060648201526084016108c6565b80612ee481613451565b915050612e32565b5060005b83811015612f7757600354838383818110612f0d57612f0d613438565b905060200201351015612f655760405160e560020a62461bcd02815260206004820152601d60248201527f4d6178416d6f756e74206d757374206265203e206d696e416d6f756e7400000060448201526064016108c6565b80612f6f81613451565b915050612ef0565b5060005b8381101561194757612fcb858583818110612f9857612f98613438565b9050602002016020810190612fad919061303c565b848484818110612fbf57612fbf613438565b9050602002013561283d565b80612fd581613451565b915050612f7b565b600060208284031215612fef57600080fd5b5035919050565b8035600160a060020a038116811461300d57600080fd5b919050565b6000806040838503121561302557600080fd5b61302e83612ff6565b946020939093013593505050565b60006020828403121561304e57600080fd5b61282a82612ff6565b6020808252825182820181905260009190848201906040850190845b81811015613098578351600160a060020a031683529284019291840191600101613073565b50909695505050505050565b6020808252825182820181905260009190848201906040850190845b81811015613098578351835292840192918401916001016130c0565b60008083601f8401126130ee57600080fd5b50813567ffffffffffffffff81111561310657600080fd5b602083019150836020808302850101111561312057600080fd5b9250929050565b6000806000806040858703121561313d57600080fd5b843567ffffffffffffffff8082111561315557600080fd5b613161888389016130dc565b9096509450602087013591508082111561317a57600080fd5b50613187878288016130dc565b95989497509550505050565b60e060020a634e487b7102600052601160045260246000fd5b600181815b808511156131e95781600019048211156131cd576131cd613193565b808516156131da57918102915b600290940493908002906131b1565b509250929050565b60008261320057506001610911565b8161320d57506000610911565b8160018114613223576002811461322d5761324a565b6001915050610911565b60ff84111561323e5761323e613193565b8360020a915050610911565b5060208310610133831016604e8410600b841016171561326d575081810a610911565b61327783836131ac565b806000190482111561328b5761328b613193565b029392505050565b600061282a60ff8416836131f1565b60208082526019908201527f4d757374206265207369676e657220746f20646f207468697300000000000000604082015260600190565b60208082526015908201527f48617320746f206265207072652d737461727465640000000000000000000000604082015260600190565b60208082526037908201527f496e646976696475616c4d6178696d756d416d6f756e74206d75737420736d6160408201527f6c6c6572207468616e20746f6b656e73466f7253616c65000000000000000000606082015260800190565b6020808252601a908201527f506f6f6c20686173206e6f742066696e616c697a656420796574000000000000604082015260600190565b60208082526014908201527f5061757361626c653a206e6f7420706175736564000000000000000000000000604082015260600190565b60208082526021908201527f4164647265737320686173206e6f74206265656e20696e2077686974656c697360408201527f7400000000000000000000000000000000000000000000000000000000000000606082015260800190565b60e060020a634e487b7102600052603260045260246000fd5b600060001982141561346557613465613193565b5060010190565b6020808252818101527f4f776e61626c653a2063616c6c6572206973206e6f7420746865206f776e6572604082015260600190565b60208082526010908201527f5061757361626c653a2070617573656400000000000000000000000000000000604082015260600190565b6020808252600e908201527f4964206d757374206265203e2030000000000000000000000000000000000000604082015260600190565b60208082526012908201527f5075726368617365206e6f7420666f756e640000000000000000000000000000604082015260600190565b60008282101561355857613558613193565b500390565b60208082526042908201527f43616e206f6e6c79206368616e676520696e666f726d6174696f6e206265666f60408201527f7265206174206c656173742037206461797320756e74696c207374617274446160608201527f7465000000000000000000000000000000000000000000000000000000000000608082015260a00190565b60208082526010908201527f48617320746f206265206f70656e656400000000000000000000000000000000604082015260600190565b60e060020a634e487b7102600052604160045260246000fd5b60208082526029908201527f57616c6c6574206d75737420626520707572636861736572206f66207468697360408201527f2070757263686173650000000000000000000000000000000000000000000000606082015260800190565b60006020828403121561369f57600080fd5b8151801515811461282a57600080fd5b60208082526013908201527f455243323020776f726b6564206661696c656400000000000000000000000000604082015260600190565b6000602082840312156136f857600080fd5b5051919050565b6000821982111561371257613712613193565b500190565b60006020828403121561372957600080fd5b815160ff8116811461282a57600080fd5b600081600019048311821515161561375457613754613193565b500290565b6000826137795760e060020a634e487b7102600052601260045260246000fd5b500490565b60e060020a634e487b7102600052603160045260246000fdfe548335cefadeb6bc3cb2530685245955b3eda3e96ee37f203b3056b6b95d6cb4a2646970667358221220d6c39919abd5ad6a0324836d66b878c6128d90c9485cbb974ae7388617ec953a64736f6c634300080a0033",
  "immutableReferences": {},
  "source": "//SPDX-License-Identifier: UNLICENSED\r\npragma solidity ^0.8.0;\r\n\r\nimport \"../node_modules/@openzeppelin/contracts/token/ERC20/ERC20.sol\";\r\nimport \"../node_modules/@openzeppelin/contracts/access/Ownable.sol\";\r\nimport \"../node_modules/@openzeppelin/contracts/security/Pausable.sol\";\r\nimport \"../node_modules/@openzeppelin/contracts/utils/math/SafeMath.sol\";\r\n\r\ncontract Whitelist {\r\n    struct Slot {\r\n        address wallet;\r\n        uint individualMaximumAmount;\r\n    }\r\n\r\n    mapping(address => uint) private  _whitelist;\r\n    Slot[] private _slots;\r\n    uint[] private _emptyPosition;\r\n    uint public individualMinimumAmount;\r\n\r\n    constructor(uint _individualMinimumAmount) {\r\n        individualMinimumAmount = _individualMinimumAmount;\r\n    }\r\n\r\n    event AddToWhitelistEvent(address wallet, uint maximumAmount);\r\n    event RemoveFromWhitelistEvent(address wallet);\r\n\r\n    modifier onlyWhitelisted(address wallet) {\r\n        require(isWhitelisted(wallet), \"Address has not been in whitelist\");\r\n        _;\r\n    }\r\n\r\n    function isWhitelisted(address wallet) public view returns(bool) {\r\n        return _whitelist[wallet] == 0 ? false : true;\r\n    }\r\n\r\n    function getIndividualMaximumAmount(address wallet) public view returns(uint) {\r\n        if (_whitelist[wallet] == 0) return 0;\r\n        return _slots[_whitelist[wallet] - 1].individualMaximumAmount;\r\n    }\r\n\r\n    function whitelist() public view returns(address[] memory) {\r\n        address[] memory res = new address[](_slots.length);\r\n        for(uint i = 0; i < _slots.length; i++)\r\n            res[i] = _slots[i].wallet;\r\n        return res;\r\n    }\r\n\r\n    function add(address wallet, uint amount) internal {\r\n        require(!isWhitelisted(wallet), \"Address has already been in whitelist\");\r\n        require(amount >= individualMinimumAmount, \"MaxAmount must be > minAmount\");\r\n        Slot memory newSlot = Slot(wallet, amount);\r\n        if (_emptyPosition.length != 0) {\r\n            uint index = _emptyPosition[_emptyPosition.length - 1];\r\n            _slots[index] = newSlot;\r\n            _emptyPosition.pop();\r\n            _whitelist[wallet] = index + 1;\r\n        }\r\n        else {\r\n            _slots.push(newSlot);\r\n            _whitelist[wallet] = _slots.length;\r\n        }\r\n        emit AddToWhitelistEvent(wallet, amount);\r\n    }\r\n\r\n    function add(address[] calldata wallets, uint[] calldata amounts) internal {\r\n        for(uint i = 0; i < wallets.length; i++)\r\n            require(!isWhitelisted(wallets[i]), \"One address has already been in whitelist\");\r\n        for(uint i = 0; i < wallets.length; i++)\r\n            require(amounts[i] >= individualMinimumAmount, \"MaxAmount must be > minAmount\");\r\n        for(uint i = 0; i < wallets.length; i++) {\r\n            add(wallets[i], amounts[i]);\r\n        }\r\n    }\r\n\r\n    function remove(address wallet) internal onlyWhitelisted(wallet) {\r\n        uint index = _whitelist[wallet] - 1;\r\n        delete _slots[index];\r\n        _whitelist[wallet] = 0;\r\n        _emptyPosition.push(index);\r\n        emit RemoveFromWhitelistEvent(wallet);\r\n    }\r\n}\r\n\r\ncontract Pool is Whitelist, Ownable, Pausable {\r\n    using SafeMath for uint;\r\n    struct Purchase {\r\n        uint amount;\r\n        address purchaser;\r\n        uint timestamp;\r\n        uint ethAmount;\r\n        bool wasFinalized;\r\n        bool wasFailed;\r\n    }\r\n\r\n    uint private _nextPurchaseId = 1;\r\n    mapping(uint => Purchase) private _purchases;\r\n    mapping(address => uint[]) private _myPurchases;\r\n    ERC20 public erc20;\r\n    bool public isSaleFunded = false;\r\n    uint8 public decimals;\r\n    bool public isUnsoldTokensRedeemed = false;\r\n    uint public tradeRatio;\r\n    uint public startDate;\r\n    uint public endDate;\r\n    uint public tokensAllocated = 0;\r\n    uint public tokensForSale;\r\n    address private FEE_ADDRESS;\r\n    uint8 public feePercentage = 1;\r\n    address public signer;\r\n\r\n    event ChangeInformationEvent(string attribute, address value, address signer);\r\n    event ChangeInformationEvent(string attribute, uint value, address signer);\r\n    event PurchaseEvent(address purchaser, uint tokensAmount, uint timestamp);\r\n\r\n    modifier inChangeableTime() {\r\n        require(block.timestamp < startDate - 7 * 24 * 60 * 60, \"Can only change information before at least 7 days until startDate\");\r\n        _;\r\n    }\r\n\r\n    modifier onlySigner() {\r\n        require(msg.sender == signer, \"Must be signer to do this\");\r\n        _;\r\n    }\r\n\r\n    /**\r\n    Check function only work when Sale hasn't been started\r\n    */\r\n    modifier isSalePreStarted() {\r\n        require(isPreStart(), \"Has to be pre-started\");\r\n        _;\r\n    }\r\n\r\n    modifier isSaleOpen() {\r\n        require(isOpen(), \"Has to be opened\");\r\n        _;\r\n    }\r\n\r\n    modifier isSaleFinalized() {\r\n        require(hasFinalized(), \"Pool has not finalized yet\");\r\n        _;\r\n    }\r\n\r\n    modifier isPurchaseExist(uint purchaseId) {\r\n        require(purchaseId > 0, \"Id must be > 0\");\r\n        require(purchaseId < _nextPurchaseId, \"Purchase not found\");\r\n        _;\r\n    }\r\n\r\n    modifier isBuyer(uint purchaseId) {\r\n        require(_purchases[purchaseId].purchaser == msg.sender, \"Wallet must be purchaser of this purchase\");\r\n        _;\r\n    }\r\n\r\n    modifier onlyPurchaseNotHandled(uint purchaseId) {\r\n        require(!isPurchaseHandled(purchaseId), \"Purchase has been handled\");\r\n        _;\r\n    }\r\n\r\n    constructor(address tokenAddress, uint tokensforsale, uint tokenvalue, uint startTimestamp, uint endTimestamp, uint minimumAmount, address onwer, address feeTaker, uint8 feeAmount) Whitelist(minimumAmount) Ownable() Pausable() {\r\n        require(tokensforsale > 0, \"TokensForSale must be greater than zero\");\r\n        require(tokenvalue > 0, \"tokenValue must be greater than zero\");\r\n        require(startTimestamp > block.timestamp, \"startDate must be in the future\");\r\n        require(endTimestamp > startTimestamp, \"endDate must greater than startDate\");\r\n        require(minimumAmount < tokensforsale, \"MinimumAmount must be smaller than tokens for sale\");\r\n        require(feeAmount >= feePercentage, \"FeePercentage must be greater than 0\");\r\n        require(feeAmount < 100, \"FeePercentage must be smaller than 100\");\r\n\r\n        erc20 = ERC20(tokenAddress);\r\n        decimals = erc20.decimals();\r\n        tradeRatio = tokenvalue;\r\n        startDate = startTimestamp;\r\n        endDate = endTimestamp;\r\n        tokensForSale = tokensforsale;\r\n        FEE_ADDRESS = feeTaker;\r\n        feePercentage = feeAmount;\r\n        super.transferOwnership(onwer);\r\n        signer = msg.sender;\r\n    }\r\n\r\n    function getInformation() external view returns(address, uint8, uint, uint, uint, uint, uint, uint) {\r\n        return (\r\n            address(erc20),\r\n            decimals,\r\n            tradeRatio,\r\n            startDate,\r\n            endDate,\r\n            tokensAllocated,\r\n            tokensForSale,\r\n            getCostFromTokens(tokensForSale)\r\n        );\r\n    }\r\n\r\n    function setErc20(address tokenAddress) external onlyOwner inChangeableTime {\r\n        erc20 = ERC20(tokenAddress);\r\n        decimals = erc20.decimals();\r\n        emit ChangeInformationEvent(\"ERC20\", tokenAddress, msg.sender);\r\n    }\r\n\r\n    function setTokenValue(uint tradeValue) external onlyOwner inChangeableTime {\r\n        require(tradeValue > 0, \"tokenValue must be greater than zero\");\r\n        tradeRatio = tradeValue;\r\n        emit ChangeInformationEvent(\"TokenValue\", tradeValue, msg.sender);\r\n    }\r\n\r\n    function setStartDate(uint _startdate) external onlyOwner inChangeableTime {\r\n        require(_startdate > block.timestamp, \"startDate must be in the future\");\r\n        require(_startdate < endDate, \"startDate must be smaller than endDate\");\r\n        startDate = _startdate;\r\n        emit ChangeInformationEvent(\"StartDate\", _startdate, msg.sender);\r\n    }\r\n\r\n    function setEndDate(uint _enddate) external onlyOwner inChangeableTime {\r\n        require(_enddate > startDate, \"endDate must greater than startDate\");\r\n        endDate = _enddate;\r\n        emit ChangeInformationEvent(\"EndDate\", _enddate, msg.sender);\r\n    }\r\n\r\n    function setTokensForSale(uint _tokensforsale) external onlyOwner inChangeableTime {\r\n        require(_tokensforsale > 0, \"TokensForSale must be greater than zero\");\r\n        tokensForSale = _tokensforsale;\r\n        emit ChangeInformationEvent(\"TokensForSale\", _tokensforsale, msg.sender);\r\n    }\r\n\r\n    function isPreStart() public view returns(bool) {\r\n        return block.timestamp < startDate;\r\n    }\r\n\r\n    function isOpen() public view returns(bool) {\r\n        return !isPreStart() && !hasFinalized();\r\n    }\r\n\r\n    function hasFinalized() public view returns(bool) {\r\n        return block.timestamp > endDate;\r\n    }\r\n\r\n    function isPurchaseHandled(uint id) internal view returns(bool) {\r\n        Purchase storage purchase = _purchases[id];\r\n        return (purchase.wasFinalized || purchase.wasFailed);\r\n    }\r\n\r\n    function fund(uint amount) external onlyOwner isSalePreStarted {\r\n        require(erc20.balanceOf(address(this)) + amount <= tokensForSale, \"TokenAmount is more than enough\");\r\n        require(erc20.transferFrom(msg.sender, address(this), amount), \"Something went wrong when changing tokens from owner to pool\");\r\n        if (erc20.balanceOf(address(this)) == tokensForSale) {\r\n            isSaleFunded = true;\r\n        }\r\n    }\r\n\r\n    function changeSigner(address newSigner) external onlySigner isSalePreStarted {\r\n        signer = newSigner;\r\n    }\r\n\r\n    function addToWhitelist(address[] calldata wallets, uint[] calldata amounts) external onlySigner isSalePreStarted {\r\n        for(uint i = 0; i < wallets.length; i++) {\r\n            require(amounts[i] <= tokensForSale, \"IndividualMaximumAmount must smaller than tokensForSale\");\r\n        }\r\n        Whitelist.add(wallets, amounts);\r\n    }\r\n    \r\n    function addToWhitelist(address wallet, uint amount) external onlySigner isSalePreStarted {\r\n        require(amount <= tokensForSale, \"IndividualMaximumAmount must smaller than tokensForSale\");\r\n        Whitelist.add(wallet, amount);\r\n    }\r\n    \r\n    function removeFromWhitelist(address wallet) external onlySigner isSalePreStarted {\r\n        Whitelist.remove(wallet);\r\n    }\r\n\r\n    function pauseContract() external onlyOwner isSaleOpen {\r\n        Pausable._pause();\r\n    }\r\n\r\n    function unpauseContract() external onlyOwner isSaleOpen {\r\n        Pausable._unpause();\r\n    }\r\n\r\n    function tokensLeft() public view returns(uint) {\r\n        return tokensForSale - tokensAllocated;\r\n    }\r\n\r\n    function getCostFromTokens(uint amount) public view returns(uint) {\r\n        require(amount > 0, \"TokenAmount must be > 0\");\r\n        return amount.mul(tradeRatio).div(10 **decimals);\r\n    }\r\n\r\n    function swap(uint amount) external isSaleOpen onlyWhitelisted(msg.sender) whenNotPaused payable {\r\n        require(isSaleFunded, \"Has to be funded\");\r\n        require(amount > 0, \"SwapAmount must be > 0\");\r\n        uint individualMaximumAmount = Whitelist.getIndividualMaximumAmount(msg.sender);\r\n        uint hasSwappedAmount = getTotalSwappedTokensAmount(msg.sender);\r\n        require(hasSwappedAmount.add(amount) >= individualMinimumAmount, \"Swap amount must at least individualMinimumAmount\");\r\n        require(hasSwappedAmount.add(amount) <= individualMaximumAmount, \"Swap amount has over individualMaximumAmount\");\r\n        require(amount <= tokensLeft(), \"Swap amount has over the rest\");\r\n        require(msg.value >= getCostFromTokens(amount), \"Please send enough fund to swap\");\r\n\r\n        Purchase memory newPurchase = Purchase(amount, msg.sender, block.timestamp, msg.value, false, false);\r\n        _purchases[_nextPurchaseId] = newPurchase;\r\n        _myPurchases[msg.sender].push(_nextPurchaseId);\r\n        tokensAllocated = tokensAllocated.add(amount);\r\n        _nextPurchaseId = _nextPurchaseId.add(1);\r\n        emit PurchaseEvent(newPurchase.purchaser, newPurchase.amount, newPurchase.timestamp);\r\n    }\r\n\r\n    function getTotalSwappedTokensAmount(address wallet) internal onlyWhitelisted(wallet) view returns(uint) {\r\n        uint[] storage listPurchase = _myPurchases[wallet];\r\n        uint sum = 0;\r\n        for(uint i = 0; i < listPurchase.length; i++) {\r\n            Purchase storage purchase = _purchases[listPurchase[i]];\r\n            sum = sum.add(purchase.amount);\r\n        }\r\n        return sum;\r\n    }\r\n\r\n    function getPurchase(uint id) external isPurchaseExist(id) view returns(uint, address, uint, uint, bool, bool) {\r\n        Purchase storage purchase = _purchases[id];\r\n        return (purchase.amount, purchase.purchaser, purchase.ethAmount, purchase.timestamp, purchase.wasFinalized, purchase.wasFailed);\r\n    }\r\n\r\n    function getMyPurchases() external view returns(uint[] memory) {\r\n        return _myPurchases[msg.sender];\r\n    }\r\n\r\n    function redeemTokens(uint purchaseId) external isSaleFinalized whenNotPaused onlyWhitelisted(msg.sender) isPurchaseExist(purchaseId) isBuyer(purchaseId) onlyPurchaseNotHandled(purchaseId) {\r\n        _purchases[purchaseId].wasFinalized = true;\r\n        require(erc20.transfer(msg.sender, _purchases[purchaseId].amount), \"ERC20 worked failed\");\r\n    } \r\n    \r\n    function redeemTokens() external isSaleFinalized whenNotPaused onlyWhitelisted(msg.sender) {\r\n        uint[] storage listPurchases = _myPurchases[msg.sender];\r\n        for(uint i = 0; i < listPurchases.length; i++) {\r\n            if(!isPurchaseHandled(listPurchases[i])) {\r\n                _purchases[listPurchases[i]].wasFinalized = true;\r\n                require(erc20.transfer(msg.sender, _purchases[listPurchases[i]].amount), \"ERC20 worked failed\");\r\n            }\r\n        }\r\n    } \r\n    \r\n    function redeemFunds(uint purchaseId) external isSaleFinalized whenPaused onlyWhitelisted(msg.sender) isPurchaseExist(purchaseId) isBuyer(purchaseId) onlyPurchaseNotHandled(purchaseId) {\r\n        _purchases[purchaseId].wasFailed = true;\r\n        payable(msg.sender).transfer(_purchases[purchaseId].ethAmount);\r\n    } \r\n    \r\n    function redeemFunds() external isSaleFinalized whenPaused onlyWhitelisted(msg.sender) {\r\n        uint[] storage listPurchases = _myPurchases[msg.sender];\r\n        for(uint i = 0; i < listPurchases.length; i++) {\r\n            if(!isPurchaseHandled(listPurchases[i])) {\r\n                _purchases[listPurchases[i]].wasFailed = true;\r\n                payable(msg.sender).transfer(_purchases[listPurchases[i]].ethAmount);\r\n            }\r\n        }\r\n    } \r\n    \r\n    function withdrawUnsoldTokens() external onlyOwner isSaleFinalized {\r\n        require(!isUnsoldTokensRedeemed, \"Owner has already withdrawed unsold tokens\");\r\n        isUnsoldTokensRedeemed = true;\r\n        require(erc20.transfer(msg.sender, tokensLeft()), \"ERC20 worked failed\");\r\n    }\r\n\r\n    function withdrawFunds() external onlyOwner isSaleFinalized whenNotPaused {\r\n        payable(FEE_ADDRESS).transfer(address(this).balance.mul(feePercentage).div(100));\r\n        payable(msg.sender).transfer(address(this).balance);\r\n    }\r\n}",
  "sourcePath": "D:\\ n tt nghip\\Fixed-IDO-contract\\contracts\\Pool.sol",
  "compiler": {
    "name": "solc",
    "version": "0.8.10+commit.fc410830.Emscripten.clang"
  },
  "schemaVersion": "3.4.4",
  "updatedAt": "2022-01-02T10:44:38.557Z",
  "devdoc": {
    "kind": "dev",
    "methods": {
      "owner()": {
        "details": "Returns the address of the current owner."
      },
      "paused()": {
        "details": "Returns true if the contract is paused, and false otherwise."
      },
      "renounceOwnership()": {
        "details": "Leaves the contract without owner. It will not be possible to call `onlyOwner` functions anymore. Can only be called by the current owner. NOTE: Renouncing ownership will leave the contract without an owner, thereby removing any functionality that is only available to the owner."
      },
      "transferOwnership(address)": {
        "details": "Transfers ownership of the contract to a new account (`newOwner`). Can only be called by the current owner."
      }
    },
    "version": 1
  },
  "userdoc": {
    "kind": "user",
    "methods": {},
    "version": 1
  }
}